:020000040800F2
:10000000300800204902000833210008391E00088A
:1000100031210008AD110008812400080000000013
:10002000000000000000000000000000B5220008F1
:10003000C71100080000000035210008CF22000889
:1000400063020008630200086302000863020008FC
:1000500063020008630200086302000863020008EC
:1000600063020008630200086302000863020008DC
:1000700063020008630200086302000863020008CC
:1000800063020008630200086302000863020008BC
:1000900063020008630200086302000863020008AC
:1000A000630200086302000863020008630200089C
:1000B000630200086302000863020008630200088C
:1000C000630200086302000863020008630200087C
:1000D000630200086302000863020008630200086C
:1000E000630200086302000863020008630200085C
:1000F000630200086302000863020008630200084C
:10010000630200086302000863020008630200083B
:10011000630200086302000863020008630200082B
:10012000630200086302000863020008630200081B
:10013000630200086302000863020008630200080B
:1001400063020008630200086302000863020008FB
:1001500063020008630200086302000863020008EB
:1001600063020008630200086302000863020008DB
:100170006302000863020008630200080000000038
:10018000630200086302000800F002F800F04CF877
:100190000AA090E8000C82448344AAF10107DA45E2
:1001A00001D100F041F8AFF2090EBAE80F0013F0E8
:1001B000010F18BFFB1A43F0010318476024000029
:1001C00080240000103A24BF78C878C1FAD85207BA
:1001D00024BF30C830C144BF04680C6070470000C1
:1001E0000023002400250026103A28BF78C1FBD840
:1001F000520728BF30C148BF0B607047642900F028
:10020000EF80782900F02881002070471FB502F0A8
:10021000D1F99DE8030000F091FD00F097FA1FBDB1
:1002200010B500F0FCFA10BD00F05FFB1146FFF7BF
:10023000EDFF02F065F900F04FFD03B4FFF7F0FFAA
:1002400003BC00F00DFF0000094880470948004743
:10025000FEE7FEE7FEE7FEE7FEE7FEE7FEE7FEE776
:10026000FEE7FEE704480549054A064B70470000D3
:1002700065230008890100083002002030080020B2
:10028000300400203004002053EA020C00F06980A2
:100290002DE9F04B4FF00006002B1FBFB3FA83F59A
:1002A00003FA05F424FA05F65E4012BF1643B2FACB
:1002B00082F502FA05F4C5F120051EBF22FA05FCFD
:1002C00044EA0C04203556EA044C4FEA144418BFA3
:1002D000641C4FF000084FF00009904271EB030CD2
:1002E00039D3002919BFB1FA81F701FA07F6B0FA3C
:1002F00080F700FA07F6C7F120071EBF20FA07FCB7
:1003000046EA0C062037B6FBF4FCA7EB0507103FC6
:1003100007F01F0BCBF120060CFA0BFB2CFA06F6AC
:1003200044BFB3460026202FA4BF5E464FF0000B0B
:100330005BEA060C08BF4FF0010B19EB0B09ABFB96
:10034000027C48EB0608C01B06FB02CC0BFB03CC6F
:1003500071EB0C01C1E70B46024641464846BDE839
:10036000F08B13B54FF000004FF00001AFF30080A9
:10037000BDE81C40704700000FB4044910B503AA43
:10038000029800F0B5F910BC5DF814FB28010020BC
:1003900070B5044685690068C10601D5302600E0C5
:1003A0002026C00707D070BDD4E901213046904710
:1003B000206A401C20626D1EF6D570BD70B50446E3
:1003C00085690078C00707D170BDD4E901212020DC
:1003D0009047206A401C20626D1EF6D570BD00005B
:1003E0002DE9F0410646002410687529314616A50E
:1003F00010D0AFF30080002802DA404213A507E0D6
:1004000031688A0701D512A502E0490704D511A574
:10041000012401E0AFF3008000210A2206F1240745
:1004200009E0B0FBF2FCB0FBF2F302FB1C00303041
:1004300078541846491C0028F3D123462A463046F2
:10044000BDE8F04100F0FAB8000000002D00000007
:100450002B0000002000000070B504460D46214628
:100460001068AFF300802188090502D50F4A7A444D
:1004700002E00E4A7A440E32002104F1240305E022
:1004800000F00F060009965D5E54491C0028F7D164
:1004900020780023000704D5702D02D009B1022373
:1004A00011322046BDE8704000F0C8B86421000059
:1004B0002DE9F05F894604464FF0000ADFF824B1C9
:1004C000FB44C0F820A02046E168884700287DD082
:1004D000252806D0D4E901219047206A401C2062DB
:1004E000F1E700255F462046E16888472028064658
:1004F00007DB312E05D2B81910F8200C08B10543DE
:10050000F1E7A80701D525F00405C4F81CA00027D1
:10051000C4F818A02A2E09D0304601F0DDFF38B308
:1005200004EB8708303EC8F8186019E059F8041B3E
:10053000204604EB87029161E1688847012F064657
:1005400018D1E069002820DA25F020051DE0D8F850
:10055000180000EB800006EB40003038C8F81800A7
:100560002046E1688847064601F0B6FF0028EED134
:10057000012F0AD02E2E08D12046E16888477F1C23
:100580000646022F45F02005C4DBA069002803DAE7
:10059000404245F00105A061E80701D025F01005B3
:1005A000A6B1A6F14100192802D8203645F400650D
:1005B0004A463146204625604D46FFF71FFE60B192
:1005C000012807D0ED1D25F0070000E007E000F14D
:1005D000080978E705F1040975E730467AE7206AEB
:1005E000BDE8F09F3A2100004FF0000200B513462D
:1005F00094469646203922BFA0E80C50A0E80C5043
:10060000B1F12001BFF4F7AF090728BFA0E80C50F3
:1006100048BF0CC05DF804EB890028BF40F8042BEC
:1006200008BF704748BF20F8022B11F0804F18BF59
:1006300000F8012B70477047704770472DE9F0476D
:100640000D4699469246044600F124080168880642
:1006500004D5E06921F01001216000E00120A842EA
:1006600001DD471B00E00027A1697A1902EB0900B0
:10067000081AA0612078C00602D42046FFF788FE41
:10068000002608E0D4E901211AF806009047206A04
:10069000401C761C20624E45F4DB2078C0060AD54B
:1006A0002046FFF775FE06E0D4E90121302090478F
:1006B000206A401C2062381EA7F10107F4DC07E025
:1006C000D4E9012118F805009047206A401C2062F7
:1006D000281EA5F10105F3DC2046FFF76FFE207808
:1006E000000602D50220BDE8F0870120FBE70000EC
:1006F000074B70B50D467B4400F011F804462846C0
:1007000000F020F810B14FF0FF3070BD204670BDF2
:10071000ED1D000001694A1C02610878704700B5B0
:100720008FB0CDE901310021059105497944CDE92A
:10073000031011466846FFF7BBFE0FB000BD000076
:10074000E5FFFFFF007B00F08000704710B54248D6
:100750005421FFF749FF41485421FFF745FF404826
:100760005421FFF741FF3F493B483C4A3F4B08605B
:100770003D490A603A491960531C0365481C1065DD
:10078000012008653B48344A39A1784400F008FA52
:1007900020B9384878440A3800F0A7FA37482F4A79
:1007A00035A1784400F0FCF920B9344878440A387F
:1007B00000F09BFA32482A4A2FA1784400F0F0F961
:1007C00020B92F4878440A3800F08FFA4023224895
:1007D000DC000021224600F0BFF920B12548784412
:1007E000543800F082FA1D4822464023002100F0D0
:1007F000B3F920B121487844543800F076FA18480B
:1008000022461023002100F0A7F9002806D01C483A
:100810007844BDE81040563800F067BA10BD104863
:1008200070B5006D20F001040B4800F02FFA0B4862
:1008300000F02CFA0A4800F029FA09E0206D20F0B7
:100840000105204600F022FA204600F073F82C46FD
:10085000002CF3D170BD0000D4000020280100203E
:100860007C010020180000201C0000202000002037
:1008700072000000811E0000770000006D1E000065
:10088000591E00000EB5CDE9000100F0C9FB029031
:1008900069460120ABBE0EBD08B569460090022036
:1008A000ABBE08BD1FB58DE8070069460520ABBE8D
:1008B00004B010BD1FB58DE80F0069460620ABBE21
:1008C000F6E708B5694600900920ABBE08BD1CB527
:1008D000CDE9000169460A20ABBE1CBD704708B5D2
:1008E000694600900C20ABBE08BD754600F004FAC6
:1008F000AE4605006946534620F00700854618B00D
:1009000020B5FFF7AFFCBDE820404FF000064FF0E8
:1009100000074FF000084FF0000B21F00701AC4634
:10092000ACE8C009ACE8C009ACE8C009ACE8C00953
:100930008D46704770B50446051F00F0E3F9006866
:10094000002C14BF446870BD002C18BFAC423CBFE3
:1009500020466468F8D301680A18AA4218BF4560A7
:1009600003D12A6805461144016028684119A14253
:100970001CBF6C6070BD61686960216808442860B4
:1009800070BD2DE9F04705460C46C86820F42010DC
:1009900040F48000C860800602D5084600F0FFFAE7
:1009A000E06841F282014FF0FF390140022903D093
:1009B000204600F09DFAB5E000F42041B1F5004F6B
:1009C0000FD1C00306D56168E06A884200D80846A6
:1009D000606006E02069E06260606069FFF77FFFA9
:1009E000A061A0680022EEB200280DDAE1688B0554
:1009F0000AD4C043A06041F490302260E060606897
:100A0000411C61600670A5E0E0689046226040F4F9
:100A10000050E060206968BB6069FFF752FF012762
:100A200004F12405A0B1A08910F4407F08D0E0694A
:100A300000F0B3F9206118B1E06840F4006016E0FE
:100A4000E7612561E06820F4407040F480600EE0CA
:100A5000E06900F0A2F900282061F1D0E06840F4DC
:100A6000006010F4407FE06002D140F48070E060EC
:100A700020696060E06825696FF0010AC1051FD533
:100A80006168E06A884200D80846411B04D02246CB
:100A9000284600F037FAF0BBE068010203D5E562B2
:100AA000C4E9015854E0691CE1626160E16940F405
:100AB0008030491EC4E9021030462E70BDE8F08730
:100AC000010202D500F480320AE06068411C6160D6
:100AD0000670E0680A2E40F48030E06006D0002204
:100AE000E16A6068814203D90B4602E00122F7E720
:100AF0000346A7895B1B7F0503D4E7699F4200DD9E
:100B0000E2B1814200D80146E5620F1AC4E90158FA
:100B1000002B09DD00E005E022461946284600F0DA
:100B2000F1F908B14846C9E747B1A069E5626560D7
:100B3000C01BA061E06840F01000E060E0680002C7
:100B400008D56168A069E562491B08446560A06139
:100B50005046B3E73046B1E770B5C468A50713D077
:100B6000650211D4B2F5807F09D0B2F5007F06D0BE
:100B7000B2F5806F08D1012300F1240106E05D1E6B
:100B80006FF07F46B54201D3012070BD0161C361A2
:100B9000416024F470611143C160002070BD000009
:100BA0002DE9F0410C4607461646104600F06EF857
:100BB0002078611C61280AD0722802D077283CD1A5
:100BC00002E00125002405E00225042402E00824B7
:100BD00048F2020511F8010B2B2806D0622809D033
:100BE00011F8010C74280AD00BE045F0030544F01D
:100BF0000204EFE745F0040544F00104EAE744F09D
:100C0000100438462146FFF73DFE411C15D0002157
:100C1000316171604FF40071F560F161706120071E
:100C200004D530460222002100F0E6F8306D40F095
:100C3000010030653046BDE8F0810020FBE72DE97A
:100C4000F0410D460646104C206DC10704D0410806
:100C500004D020F00104F7E722460EE0542000F013
:100C60009CF807000ED0206D47F001010843542185
:100C700020653846FFF7B8FC3A4629463046BDE8BD
:100C8000F0418DE70020D6E7D40000202DE9F047A1
:100C900004464FF000094FF0FF37C568D4E90486D9
:100CA000A80707D0204600F057F93046FFF7F4FDBB
:100CB000002802DA3846BDE8F087280502D540460C
:100CC000FFF738FE4C212046FFF78EFC206D20F008
:100CD000010020654846EEE710B50446AFF30080FA
:100CE0002046BDE81040FFF7A8BA10B500F07EF925
:100CF000BDE8104000F074B900487047D0010020F2
:100D00007047000000487047D801002070477047C6
:100D10007047704738B504460A4600206946AFF36D
:100D20000080002808BF38BD02460099204600F028
:100D3000A4F9012038BD012000F0F3B9F8B5AFF3F4
:100D40000080054600200C46102000BF0646A8196A
:100D5000A0420DD9324669460020AFF3008007005B
:100D600008BF00F0DEF90098A04218BF0546C4197C
:100D7000FFF7C8FF05600746F01D20F00700461981
:100D8000284600F073F9B44208BFF8BDA21B3146F3
:100D90003868BDE8F84000F070B970B50646FFF756
:100DA000B1FF056806F10B0020F00704B4429CBFB8
:100DB000002070BD2B466A68BAB11068A04210D3FB
:100DC00004F1080188423CBF5068586007D351685D
:100DD000101941601168091B016058601460101DF2
:100DE00070BD13465268002AE7D121462846FFF716
:100DF00091FF0028DED170BD2DE9F0410446164672
:100E00000D464769007B80072ED03846FFF759FD15
:100E100050BB3EB3012E02D0022E25D104E0204665
:100E200000F045F905441DE03846FFF758FDE1683C
:100E3000002841F01001E16005DA204600F058F882
:100E40000120BDE8F081C9030BD56268E16A9142D7
:100E500000D81146A26911442269891A814200DD35
:100E600008460544002D01DA0220EAE7E16A6068DD
:100E7000E268814206D29103E06203D522F4003198
:100E800041F01002A6690027AE4213DCE16A8142FC
:100E900001D90B4600E0034603EB060C2369ACEBDB
:100EA000030CAC4506DD814201D98C4600E0844646
:100EB0009C4505D1A760276042F02000A5620DE0A7
:100EC000AD1BE669AE1B8142A66000D90846C01A78
:100ED000281A20605819606022F020000349084059
:100EE000E060002084F84870ABE70000BFCFD7FF78
:100EF000C16821F4001141F08001C16000218160CE
:100F0000016070472DE9F047814614460E464FF0C8
:100F1000FF383248D5685769054209D03846A1697B
:100F2000FFF7D5FC002811DB2C48C0430540E560E5
:100F30002B46324649463846FFF7B4FCA16920F0FB
:100F40000042B21A11440028A16103D02046FFF7E5
:100F5000CFFF4046BDE8F08770B504460569C06A1A
:100F60006168884200D80846E16821F42011E160F8
:100F7000C90312D5A84208D02246411B2846FFF7D4
:100F8000C1FF10B14FF0FF3070BD0020E562C4E931
:100F90000150E06820F48030E060002070BD10B5A2
:100FA0000446C06820F02000E060A16AA069884281
:100FB0000DD02046FFF7D0FFE06820F4405040F00D
:100FC0001000E060A06AA0612069E062606044F205
:100FD0004001E0688843E06010BD0000100002009E
:100FE000002801D000F03CB87047000010B5014661
:100FF00002A000F07DF8012010BD000053494752C7
:10100000545245443A2052656469726563743A20CB
:1010100063616E2774206F70656E3A2000000000D7
:1010200010B5431C02E010F8011B71B18107FAD121
:101030004FF0013202C88C1A8C4314EAC211F9D065
:10104000C01A0A0603D0C01E10BDC01A10BD0A0483
:1010500001D0801E10BD0902FCD0401E10BD000052
:1010600001491820ABBEFEE7260002000021016006
:10107000C0E90110704710207047034640688C4655
:10108000002818BF88423CBF03464068F8D3186860
:101090001844884207D00CF1030020F00700001D1F
:1010A000411A521A0146081D0A60FFF743BC10B5E9
:1010B0000146C268900703D0900607D5886A0AE007
:1010C00000F03EF801210160881E10BD8B69486860
:1010D00018440B69C01A91F848301BB191F84910B7
:1010E000401A10BD1103FCD50028FADD401E10BDCA
:1010F00070B505460C460A2000E06D1C00F018F89B
:1011000035B128780028F8D102E0641C00F010F80E
:1011100014B120780028F8D1BDE870400A2000F012
:1011200007B810B500F010F8BDE81040FFF758BF41
:1011300008B569468DF800000320ABBE08BD00006D
:1011400000487047D001002010B5012805D00021CB
:1011500003A0FFF7CDFF012010BD09A1F8E70000B3
:1011600053494752544D454D3A204F7574206F6690
:101170002068656170206D656D6F727900000000F8
:101180003A2048656170206D656D6F727920636FDC
:10119000727275707465640010B5142000F0DCFF85
:1011A0000321BDE81040142001F085B8FEE770B5BA
:1011B0000C46054600F0D0FF20EA04012846BDE8B1
:1011C000704001F05FB9704772B6FEE72DE9F84F45
:1011D000DFF8BCA10022012503264FF00F090AF118
:1011E000040BAAF1040E00BF0B6805FA02F42340B9
:1011F000A34270D10F7907F00307012F01D0022F0E
:1012000016D187684FEA420806FA08FC27EA0C075D
:10121000D1F80CC00CFA08FC4CEA070CC0F808C066
:101220004768A7430C79C4F3001494403C434460DE
:101230000C79E443A4070AD0C4684FEA420C06FACA
:101240000CF7BC438F6807FA0CF72743C7600C798B
:1012500004F00304022C12D1D40800EB840CDCF857
:1012600020405707FF0E09FA07F824EA0804D1F8CE
:10127000108008FA07F848EA0408CCF820800468CF
:101280004FEA420C06FA0CF7BC430F7907F003074C
:1012900007FA0CF7274307604C6814F4403F70D0FE
:1012A0003C4C276847F480472760246822F00307F6
:1012B00004F480440094384C07EB040CDCF8084834
:1012C00097074FEA177809FA08F7BC43334FB8423B
:1012D00002D1002724E054E0314FB84201D1012768
:1012E0001EE0304FB84201D1022719E02E4FB8421C
:1012F00001D1032714E02D4FB84201D104270FE09C
:101300002B4FB84201D105270AE02A4FB84201D13C
:10131000062705E0284FB84201D1072700E008273B
:1013200007FA08F72743CCF80878DAF80040574660
:10133000D1F804C09C435FEACC2C00D51C433C6030
:10134000DBF800405F46D1F804C09C435FEA8C2C78
:1013500000D51C433C60DEF800407746D1F804C05D
:101360009C435FEA8C3C00D51C433C60084F083F1F
:101370003C68D1F804C09C435FEACC3C00D51C43D8
:101380003C60521C102AFFF42FAFBDE8F88F00001C
:10139000083C014044380240003001400000024057
:1013A0000004024000080240000C0240001002400D
:1013B0000014024000180240001C02400AB1816182
:1013C00070470904FBE7000001488068704700008F
:1013D000080000200248816802781144816070474B
:1013E000080000200B4810B5016841F4007101604D
:1013F000016841F480610160016841F4807101601D
:10140000032000F063F8002000F006F800F024F854
:10141000002010BD003C024070B50D4D04464FF455
:101420007A712878B1FBF0F00A490968B1FBF0F055
:1014300000F087FC48B9102C07D200222146501E2C
:1014400000F024F800206C6070BD012070BD000029
:1014500008000020140000200B4882B0016841F40D
:1014600080410160006800F4804000900648001F41
:10147000016841F080510160006800F080500090E8
:10148000072002B000F022B844380240F0B40E4BFE
:101490001B680C46C3F30223C3F10705042D00D9D2
:1014A0000425191D072901D2002300E0DB1E0126B7
:1014B00006FA05F1491E214099409E40761E1640CD
:1014C0003143F0BC00F0F8BF0CED00E0064900F03D
:1014D000070208684FF6FF03184040EA0220034A5B
:1014E00010430860704700000CED00E00000FA05B2
:1014F0002DE9F0470E46050065D0DFF81481D8F8D5
:101500000000F7B200F00700B04207D288F8007080
:10151000D8F8000000F00700B04254D128683D4CD4
:10152000810712D5400703D5206840F4E0502060C1
:101530002878000703D5206840F4604020602068C8
:10154000A96820F0F000084320602878C0072DD05B
:10155000304968680839012812D0022813D00328BE
:1015600011D00968890700292DDA216821F00301CB
:1015700001432160FFF728FF814641F2883A0EE0DF
:1015800009688903EFE709688901ECE7FFF71CFFA9
:10159000A0EB0901514502D90320BDE8F08720687E
:1015A000696800F00C00B0EB810FEFD1D8F80010A3
:1015B000404601F00701B14207D90770006800F00A
:1015C0000700B04201D00120E7E72878400705D5A1
:1015D0002068E96820F4E05008432060287800077C
:1015E00006D52068296920F4604040EAC1002060E7
:1015F00000F038F82168084AC1F30311515CC84073
:101600000649086006480068FFF706FF0020C4E7A7
:10161000003C024008380240BE25000814000020AB
:101620000C0000200448054900680968044AC1F319
:101630008221515CC84070471400002008380240E5
:10164000CE2500080448054900680968044AC1F32A
:101650004231515CC84070471400002008380240F5
:10166000CE250008154810B5006810F00C0214488B
:1016700013D04110042A0FD0082A0ED10F4C241F7A
:101680002268236802F03F025B0207D52068C0F39E
:101690008810A0FB010106E0084610BD2168C1F3D7
:1016A0008811A1FB00010023FEF7EEFD2168C1F3C4
:1016B0000141491C4900B0FBF1F010BD083802405F
:1016C0000024F4002DE9F84F04006ED02078DFF8F4
:1016D0004C93C007A9F104054AD009F10400016840
:1016E000C1F38101012908D00068C0F381000228FC
:1016F0000AD1D9F80000400206D52868800337D502
:1017000060680028E1D033E06068B0F5803F10D019
:10171000B0F5A02F286810D020F480302860286809
:1017200020F4802028606068A8B1FFF74DFE0646CF
:101730000DE0286840F48030F4E740F48020286011
:10174000F7E700BFFFF740FE801B642873D82868C6
:101750008003F7D50CE0FFF737FE064605E000BF33
:10176000FFF732FE801B6428F0D828688003F7D486
:101770002078DFF8AC8280074FF0000A3ED5A748FA
:10178000001D016811F00C0F08D00068C0F3810043
:1017900002280BD1D9F80000400207D4286880073E
:1017A00016D5E068012800D112E033E1E068B8B155
:1017B0000120C8F80000FFF707FE064605E000BF5D
:1017C000FFF702FE801B0228C0D828688007F7D5E3
:1017D0002868216920F0F80040EAC10028600DE087
:1017E000C8F800A0FFF7F0FD064604E0FFF7ECFDA7
:1017F000801B02281FD828688007F7D420780007AC
:1018000022D5864F87486169703771B10121016027
:10181000FFF7DAFD064604E0FFF7D6FD801B02283D
:1018200009D838688007F7D50EE0C0F800A0FFF7A8
:10183000CBFD064605E082E0FFF7C6FD801B0228CF
:101840007DD838688007F7D42078400768D5DFF85E
:10185000CCB100270BF13C0BDBF80000C0000BD42F
:10186000DBF8001041F08051CBF80010DBF80000ED
:10187000012700F0805000906B4E3068C00510D4F6
:10188000306840F480703060FFF79EFD009005E006
:10189000FFF79AFD0099401A022850D83068C00519
:1018A000F6D55E4EA0686C3601280FD0052830684A
:1018B00010D020F001003060306820F0040030606B
:1018C000A068B8B1FFF780FD00900FE0306840F0ED
:1018D0000100F4E740F004003060F7E7FFF774FD23
:1018E0000099411A41F28830814266D830688007F9
:1018F000F4D50EE0FFF768FD009007E0FFF764FD08
:101900000099411A41F28830814256D830688007E8
:10191000F4D42FB1DBF8001021F08051CBF8001087
:10192000A069C8B33D49091D0968C1F381010229B5
:101930004AD00228504607D0C8F8600000E03CE0DA
:10194000FFF742FD04463BE04746C8F86000FFF75A
:101950003BFD064605E000BFFFF736FD801B022871
:101960002BD828688001F7D4D4E907010843A16A7D
:101970002E4A490802EB0141626A41EA821108439A
:1019800094F82C1040EA0161C9F800100120386673
:10199000FFF71AFD044606E03EE000BFFFF714FD26
:1019A000001B022809D828688001F7D534E000BF61
:1019B000FFF70AFD001B022802D90320BDE8F88FBB
:1019C00028688001F4D427E00128F7D0D9F8000076
:1019D000E26900F4800191421CD1226A00F03F01CB
:1019E000914217D147F6C071626A0140B1EB821F84
:1019F00010D1A26A4FF0FF3300F4403103EB5202E2
:101A0000B1EB024F06D194F82C1000F07060B0EBEF
:101A1000016F01D00120D1E70020CFE70438024058
:101A200000004742800E4742007000400000FFFF68
:101A300070B5040009D0606A002540B12561656178
:101A4000A56294F8510040B10CE0012070BD6068BF
:101A5000B0F5827FF4D0E561F2E784F8505020467B
:101A600000F044F8022084F851002068016821F059
:101A700040010160A088218900F4827001F40441D2
:101A80000843A18901F400610843217C01F00201AF
:101A90000843217D01F001010843218B01F400710D
:101AA0000843217F01F03801084394F8201001F029
:101AB00080010843218D01F400510843216808602A
:101AC000A069042101EA104094F8241001F01001EB
:101AD0000843216848602068C16921F40061C16140
:101AE0006565012084F85100002070BD10B586B0F6
:101AF000044614216846FEF777FD134920688842A2
:101B000020D112480021026842F48052026000682D
:101B100000F4805005900D481438026842F001022C
:101B20000260006800F001000590E02000900220B3
:101B3000CDE9010103200390052004906946044883
:101B4000FFF744FB06B010BD0030014044380240AE
:101B5000000002402DE9FF4F81B0044690F850008C
:101B600000260E9F1D4693464FF0010901280FD015
:101B70004FF0010A84F850A0FFF726FC804694F845
:101B80005100616801280DD0B1F5827F08D103E0D2
:101B9000022005B0BDE8F08FA16809B9042801D082
:101BA0000226C9E00298002865D0BBF1000FFBD0E7
:101BB000002DF9D094F85100042802D0052084F8B3
:101BC000510000206065C4F838B0E587A587029908
:101BD0002163E586A5862064606420680168490663
:101BE00003D4016841F040010160E068B0F5006F86
:101BF000606803D0F0B3012D47D081E008B1012D1A
:101C00003CD1206B21680088C860206B801C206359
:101C1000E08E401EE08631E02068816889070FD59C
:101C2000E18E69B1B9F1010F0AD1216B0988C16058
:101C3000206B801C2063E08E401EE0864FF0000980
:101C400020688168C9070CD0E18F51B1C068A16BD1
:101C50000880A06B801CA063E08F401EE0874FF0DF
:101C60000109FFF7B1FBA0EB0800B84206D3781CCE
:101C700004D001E009E05BE003265BE0E08E002891
:101C8000CAD1E08F0028C7D140E0206B21680078DE
:101C90000873206B401C2063E08E401EE0862FE01E
:101CA0002068816889070FD5E18E69B1B9F1010F0C
:101CB0000AD1216B09780173206B401C2063E08EF0
:101CC000401EE0864FF0000920688168C9070CD0EB
:101CD000E18F51B1C068A16B0870A06B401CA0637C
:101CE000E08F401EE0874FF00109FFF76DFBA0EB8E
:101CF0000800B84202D3781C02D0BAE7002FB8D04F
:101D0000E08E0028CCD1E08F0028C9D14246394668
:101D1000204600F03DFA18B10126202060650BE056
:101D2000A06818B92068C16880680090606D08B12B
:101D3000012601E084F851A0002084F850003046CC
:101D400027E710B5401EB0F1807F01D3012010BD00
:101D50004FF0E02460610F21601700F0ADFB002020
:101D6000A06107202061002010BD70B5040004D0E0
:101D700094F84100002510B106E0012070BD84F800
:101D80004050204600F024F8242084F841002068C8
:101D9000C16821F40051C160204600F0EBFA2068D0
:101DA000016921F4904101612068416921F02A0113
:101DB00041612068C16841F40051C1606564202020
:101DC00084F8410084F842006563002070BD000083
:101DD00010B586B0044614216846FEF705FC134989
:101DE0002068884220D112480021026842F4003263
:101DF0000260006800F4003005900D481038026859
:101E000042F001020260006800F0010005900C2021
:101E100000900220CDE901010320039007200490E7
:101E200069460448FFF7D2F906B010BD00440040EF
:101E30004038024000000240FEE77CB50446002521
:101E400029460D2000F01EFB93202070202060709A
:101E500001A823460090022219460C2000F040F809
:101E6000010009D1225C401C5540C0B20428F9D3BE
:101E7000205CA84200D0022108467CBD10B501229A
:101E800010211348FFF79AFA012211461148FFF773
:101E900095FA00F021F88D212A2000F0F3FA3E2176
:101EA0002B2000F0EFFA1E212D2000F0EBFA00218C
:101EB0002C2000F0E7FA4021152000F0E3FA3D2144
:101EC000112000F0DFFABDE81040FFF765B900000F
:101ED00000000240000402400F21012000F0D2BAAD
:101EE0002DE9FF5F00270225DDF838A016468B4656
:101EF0008146B8460C2805D0B9F10E0F05D112273E
:101F0000102001E077273020804647F08001022032
:101F100000F0B8FA80210420FFF749F980210A2057
:101F200000F0C9F90021012000F0ACFA002405E01E
:101F30001BF80410092000F0A5FA641CB442F7D382
:101F40004946012000F09EFAB9F10C0F03D180211F
:101F50000D2000F0B0F94FF4FA66042000F0FCF810
:101F60000446761E04D0E00702D114EA080FF4D02C
:101F700080210D20FFF71BF936B1062000F0ECF8A8
:101F800010F01B0F04D0022504B02846BDE8F09FD6
:101F900000253C40E00700D00125B9F10C0FF3D13A
:101FA0000A2000F0D9F804460C2000F0D5F810F013
:101FB00007004FEAC40101D008390144CAF80010F3
:101FC00024B1102C04D91024002603E00124FBE7DF
:101FD000002605E0092000F0BFF803998855761C1B
:101FE000A642F7D3D0E700002DE9F04387B01421D3
:101FF0006846FEF7F9FA2A480024016841F080019A
:102000000160016801F080010591016841F0010162
:102010000160016801F001010591016841F00201D0
:102020000160016801F002010591016841F00801B9
:10203000016000681B4F00F008000590002210218D
:102040003846FFF7BBF9DFF86080002201214046E7
:10205000FFF7B4F9DFF854904FF470460022314690
:102060004846FFF7ABF9102000900125CDE9015457
:10207000694638460394FFF7A9F80095CDE9015465
:10208000694640460394FFF7A1F80096CDE9015454
:10209000694648460394FFF799F807B0BDE8F08316
:1020A000303802400000024000040240000C0240B0
:1020B000104810B50E4901604FF482714160002153
:1020C0008160C1604FF400720161C0E90512102205
:1020D000C0E90721416281620A21C162FFF7A8FCC1
:1020E000002803D0BDE81040FFF76EB810BD000017
:1020F00000300140340000200C4810B50A4901604E
:102100004FF4E1314160002181600C22C160C0E9DF
:1021100004128161C161FFF728FE002803D0BDE8E9
:102120001040FFF751B810BD004400408C00002063
:10213000FEE7FEE77047000001B582B06420009022
:10214000012301AA02A90348FFF704FD9DF804003A
:102150000EBD00003400002070B50C4D0446002276
:1021600010212846FFF72AF97E2000EA440040F0BB
:102170008000FFF7E1FF0020FFF7DEFF04460122A9
:1021800010212846FFF71AF9204670BD00000240D2
:10219000F8B515460E460B46009204460122022170
:1021A00000F02CF8A0B9134813490068B0FBF1F017
:1021B0004FF47A71484300906068B0F5827F0DD18A
:1021C0003346002280212046009500F017F870B1B8
:1021D000606D40F0200060650320F8BD009830B1CC
:1021E000401E009020688068C0430006F6D500209D
:1021F000F8BD00001400002000366E012DE9F84300
:102200001E46914688460446089DFFF7DDF8401BB0
:10221000351AFFF7D9F8074625480068C0F3CB30D8
:10222000684338E0701C37D0FFF7CEF8C01BA842D7
:1022300003D215B1009860B32CE02068416821F00A
:10224000E00141606068B0F5827F0BD1A068B0F515
:10225000004F02D0B0F5806F04D12068016821F0F2
:1022600040010160A06AB0F5005F09D120680168F3
:1022700021F4005101602068016841F400510160BF
:10228000012084F85100002084F850000320BDE8AC
:10229000F8830025401E00902068816838EA01001C
:1022A00004D000214945BDD10020F0E70121F9E724
:1022B00014000020704770B50C460546FFF74CFF30
:1022C00040EA04012846BDE8704000F0DBB8FFF7A3
:1022D00081B8000030B593B030216846FEF784F92C
:1022E00014210CA8FEF780F91C480025016841F074
:1022F00080510160006800F080501190184801681A
:1023000041F4804101600068022400F48040119093
:1023100001200090000401908001CDE906400420D6
:1023200008904820CDE9090407200B906846FFF784
:10233000C9F908B172B6FEE70CA90F2081E8310097
:102340004FF480500F90109002210CA8FFF7D0F8A6
:10235000002801D072B6FEE713B030BD403802400D
:10236000007000400248016841F47001016070474C
:1023700088ED00E070B5044600680169E26821F468
:102380004051114301612169A068E2690843616914
:10239000114308432168CA6849F20C639A43024317
:1023A000CA6020684169A26921F44071114341610A
:1023B00031492068884202D03049884202D1FFF773
:1023C00041F901E0FFF72EF9E269002319216425A4
:1023D0003226B2F5004F626828D0A0FB0101930FAE
:1023E0009200FDF751FF0146B0FBF5F06FF01802C7
:1023F000504301EB800006EB0010B0FBF5F000F05D
:10240000F002B1FBF5F002EB0012B1FBF5F06FF05A
:102410001803584301EB800006EB0010B0FBF5F009
:1024200000F00F0021681044886070BDA0FB01011E
:1024300092185B41FDF728FF0146B0FBF5F0020161
:10244000B1FBF5F06FF01803584301EB800006EB89
:10245000C000B0FBF5F000F0F80002EB4002B1FB69
:10246000F5F0584301EB800006EBC000B0FBF5F03F
:1024700000F00700D6E70000001001400014014002
:10248000FEE7000070B50B4D0E46044600221021F9
:102490002846FEF793FF7E2000EA4400FFF74CFE3B
:1024A0003046FFF749FE2846BDE870400122102162
:1024B000FEF784BF000002400907090E002804DB74
:1024C00000F1E02080F80014704700F00F0000F1E8
:1024D000E02080F8141D704730380A2801D201200E
:1024E0007047002070478A68002A01DCFEF749BA6D
:1024F000521E8A604A68C0B2531C4B60107070470D
:10250000FEF770FFFFF7E6FEFFF76EFDFFF7D0FD69
:10251000FFF7F2FDFFF7B2FC124EDFF844804FF4F4
:102520008057751E1048FFF788FC2870011E03D0E5
:102530000EA0FDF721FFF5E7012239464046FEF7E0
:102540003DFF13A0FDF718FF002417A0315DFDF734
:1025500013FF641C052CF8DB15A0FDF70DFFE1E768
:10256000000C02400100002024000020416E74692C
:102570002D636F6C6C6973696F6E206661696C6541
:10258000642E205374617475733A2025640A000028
:10259000436172642053657269616C204E756D628F
:1025A00065723A20000000002530325820000000FB
:1025B0000A0000004FF04070E1EE100A7047000082
:1025C00000000000000001020304060708090000E3
:1025D00000000102030430313233343536373839E4
:1025E000414243444546403058003031323334355F
:1025F00036373839616263646566403078000400BC
:102600000008000000000000000200010000103A75
:102610007474003A7474003A747400003C26000824
:102620000000002024000000C4010008602600080B
:10263000240000200C080000E00100080000000059
:102640000000000001000000100000000000000079
:102650000024F40000000000000000000000000062
:040000050800018965
:00000001FF
