:020000040800F2
:10000000000700202902000843120008F31000082E
:10001000411200081F0400084B14000800000000F3
:10002000000000000000000000000000471200086F
:1000300021040008000000004512000849120008D1
:10004000430200084302000843020008430200087C
:10005000430200084302000823040008430200088A
:10006000430200084302000843020008430200085C
:10007000430200084302000843020008430200084C
:10008000430200084302000843020008430200083C
:10009000430200084302000843020008430200082C
:1000A000F11200084302000843020008430200085E
:1000B000FD12000843020008430200084302000842
:1000C00043020008430200084302000843020008FC
:1000D00043020008430200084302000843020008EC
:1000E00043020008430200084302000843020008DC
:1000F00043020008430200084302000843020008CC
:1001000043020008430200084302000843020008BB
:1001100043020008430200084302000843020008AB
:10012000430200084302000843020008430200089B
:10013000430200084302000843020008430200088B
:10014000430200084302000843020008430200087B
:10015000430200084302000843020008430200086B
:10016000430200084302000843020008430200085B
:100170004302000843020008430200080000000098
:10018000430200084302000800F002F800F03CF8C7
:100190000AA090E8000C82448344AAF10107DA45E2
:1001A00001D100F031F8AFF2090EBAE80F0013F0F8
:1001B000010F18BFFB1A43F001031847F8120000A3
:1001C00018130000103A24BF78C878C1FAD8520733
:1001D00024BF30C830C144BF04680C6070470000C1
:1001E0000023002400250026103A28BF78C1FBD840
:1001F000520728BF30C148BF0B6070471FB501F0E0
:100200004BF91FBD10B510BD00F0CFF81146FFF738
:10021000F5FF01F02BF900F0EDF803B4FFF7F2FF62
:1002200003BC00F0F5F80000094880470948004782
:10023000FEE7FEE7FEE7FEE7FEE7FEE7FEE7FEE796
:10024000FEE7FEE704480549054A064B70470000F3
:10025000E1120008890100080001002000070020C9
:10026000000300200003002053EA020C00F0698024
:100270002DE9F04B4FF00006002B1FBFB3FA83F5BA
:1002800003FA05F424FA05F65E4012BF1643B2FAEB
:1002900082F502FA05F4C5F120051EBF22FA05FC1D
:1002A00044EA0C04203556EA044C4FEA144418BFC3
:1002B000641C4FF000084FF00009904271EB030CF2
:1002C00039D3002919BFB1FA81F701FA07F6B0FA5C
:1002D00080F700FA07F6C7F120071EBF20FA07FCD7
:1002E00046EA0C062037B6FBF4FCA7EB0507103FE7
:1002F00007F01F0BCBF120060CFA0BFB2CFA06F6CD
:1003000044BFB3460026202FA4BF5E464FF0000B2B
:100310005BEA060C08BF4FF0010B19EB0B09ABFBB6
:10032000027C48EB0608C01B06FB02CC0BFB03CC8F
:1003300071EB0C01C1E70B46024641464846BDE859
:10034000F08B13B54FF000004FF00001AFF30080C9
:10035000BDE81C4070474FF0000200B513469446BC
:100360009646203922BFA0E80C50A0E80C50B1F10D
:100370002001BFF4F7AF090728BFA0E80C5048BF21
:100380000CC05DF804EB890028BF40F8042B08BFBF
:10039000704748BF20F8022B11F0804F18BF00F8BB
:1003A000012B7047704770477047754600F02CF876
:1003B000AE4605006946534620F00700854618B052
:1003C00020B5FFF73FFFBDE820404FF000064FF09B
:1003D00000074FF000084FF0000B21F00701AC467A
:1003E000ACE8C009ACE8C009ACE8C009ACE8C00999
:1003F0008D46704710B50446AFF300802046BDE837
:100400001040FFF70ABF000000487047A00000201E
:1004100001491820ABBEFEE7260002007047FEE748
:100420007047012000F00CB872B6FEE7012803D136
:100430004103024800F008B970470000000C024078
:10044000044910B50A68024202D00860FFF7EEFFC7
:1004500010BD0000143C01402DE9F84FDFF8BCA1AD
:100460000022012503264FF00F090AF1040BAAF11F
:10047000040E00BF0B6805FA02F42340A34270D1BA
:100480000F7907F00307012F01D0022F16D18768DB
:100490004FEA420806FA08FC27EA0C07D1F80CC01C
:1004A0000CFA08FC4CEA070CC0F808C04768A743E0
:1004B0000C79C4F3001494403C4344600C79E44349
:1004C000A4070AD0C4684FEA420C06FA0CF7BC43F2
:1004D0008F6807FA0CF72743C7600C7904F0030410
:1004E000022C12D1D40800EB840CDCF82040570712
:1004F000FF0E09FA07F824EA0804D1F8108008FA78
:1005000007F848EA0408CCF8208004684FEA420C57
:1005100006FA0CF7BC430F7907F0030707FA0CF74C
:10052000274307604C6814F4403F70D03C4C276868
:1005300047F480472760246822F0030704F48044CE
:100540000094384C07EB040CDCF8084897074FEA96
:10055000177809FA08F7BC43334FB84202D1002795
:1005600024E054E0314FB84201D101271EE0304F62
:10057000B84201D1022719E02E4FB84201D103271A
:1005800014E02D4FB84201D104270FE02B4FB842A1
:1005900001D105270AE02A4FB84201D1062705E01C
:1005A000284FB84201D1072700E0082707FA08F7CB
:1005B0002743CCF80878DAF800405746D1F804C051
:1005C0009C435FEACC2C00D51C433C60DBF8004028
:1005D0005F46D1F804C09C435FEA8C2C00D51C43D5
:1005E0003C60DEF800407746D1F804C09C435FEAE7
:1005F0008C3C00D51C433C60084F083F3C68D1F858
:1006000004C09C435FEACC3C00D51C433C60521CB8
:10061000102AFFF42FAFBDE8F88F0000083C01401E
:100620004438024000300140000002400004024013
:1006300000080240000C024000100240001402407A
:1006400000180240001C0240426921EA02030A40ED
:1006500043EA0241816170470AB181617047090430
:10066000FBE70000014880687047000000000020A0
:1006700002488168027811448160704700000020C0
:100680000B4810B5016841F400710160016841F444
:1006900080610160016841F480710160032000F015
:1006A00071F8002000F006F800F024F8002010BDDA
:1006B000003C024070B50D4D04464FF47A71287825
:1006C000B1FBF0F00A490968B1FBF0F000F0ECFA78
:1006D00048B9102C07D200222146501E00F032F8F3
:1006E00000206C6070BD012070BD00000000002083
:1006F0000C0000200B4882B0016841F48041016089
:10070000006800F4804000900648001F016841F036
:1007100080510160006800F080500090072002B016
:1007200000F030B844380240002809DB00F01F0216
:10073000012191404009800000F1E020C0F8001143
:1007400070470000F0B40E4B1B680C46C3F3022345
:10075000C3F10705042D00D90425191D072901D26D
:10076000002300E0DB1E012606FA05F1491E2140A8
:1007700099409E40761E16403143F0BC00F066BEA4
:100780000CED00E0064900F0070208684FF6FF0391
:10079000184040EA0220034A1043086070470000F6
:1007A0000CED00E00000FA052DE9F0470E460500CB
:1007B00065D0DFF81481D8F80000F7B200F0070028
:1007C000B04207D288F80070D8F8000000F00700A7
:1007D000B04254D128683D4C810712D5400703D55B
:1007E000206840F4E05020602878000703D5206896
:1007F00040F4604020602068A96820F0F0000843C1
:1008000020602878C0072DD0304968680839012851
:1008100012D0022813D0032811D0096889070029B3
:100820002DDA216821F0030101432160FFF71AFF4F
:10083000814641F2883A0EE009688903EFE70968CA
:100840008901ECE7FFF70EFFA0EB0901514502D942
:100850000320BDE8F0872068696800F00C00B0EB69
:10086000810FEFD1D8F80010404601F00701B142E6
:1008700007D90770006800F00700B04201D00120DE
:10088000E7E72878400705D52068E96820F4E050BC
:10089000084320602878000706D52068296920F4DD
:1008A000604040EAC100206000F018F82168084A62
:1008B000C1F30311515CC84006490860064800684E
:1008C000FFF7F8FE0020C4E7003C02400838024071
:1008D000A21400080C00002004000020154810B5E8
:1008E000006810F00C02144813D04110042A0FD0F5
:1008F000082A0ED10F4C241F2268236802F03F0201
:100900005B0207D52068C0F38810A0FB010106E058
:10091000084610BD2168C1F38811A1FB0001002326
:10092000FFF7A2FC2168C1F30141491C4900B0FB5B
:10093000F1F010BD083802400024F4002DE9F84F12
:1009400004006ED02078DFF84C93C007A9F10405AD
:100950004AD009F104000168C1F38101012908D0DE
:100960000068C0F3810002280AD1D9F800004002D3
:1009700006D52868800337D560680028E1D033E0C9
:100980006068B0F5803F10D0B0F5A02F286810D077
:1009900020F480302860286820F480202860606877
:1009A000A8B1FFF75FFE06460DE0286840F48030EE
:1009B000F4E740F480202860F7E700BFFFF752FE1D
:1009C000801B642873D828688003F7D50CE0FFF7F4
:1009D00049FE064605E000BFFFF744FE801B642881
:1009E000F0D828688003F7D42078DFF8AC8280073D
:1009F0004FF0000A3ED5A748001D016811F00C0F0A
:100A000008D00068C0F3810002280BD1D9F800009B
:100A1000400207D42868800716D5E068012800D175
:100A200012E033E1E068B8B10120C8F80000FFF738
:100A300019FE064605E000BFFFF714FE801B0228E2
:100A4000C0D828688007F7D52868216920F0F80009
:100A500040EAC10028600DE0C8F800A0FFF702FEE0
:100A6000064604E0FFF7FEFD801B02281FD8286819
:100A70008007F7D42078000722D5864F8748616920
:100A8000703771B101210160FFF7ECFD064604E00B
:100A9000FFF7E8FD801B022809D838688007F7D5E2
:100AA0000EE0C0F800A0FFF7DDFD064605E082E09D
:100AB000FFF7D8FD801B02287DD838688007F7D45F
:100AC0002078400768D5DFF8CCB100270BF13C0B4C
:100AD000DBF80000C0000BD4DBF8001041F08051BF
:100AE000CBF80010DBF80000012700F080500090E8
:100AF0006B4E3068C00510D4306840F480703060B0
:100B0000FFF7B0FD009005E0FFF7ACFD0099401A3B
:100B1000022850D83068C005F6D55E4EA0686C3605
:100B200001280FD00528306810D020F00100306077
:100B3000306820F004003060A068B8B1FFF792FD83
:100B400000900FE0306840F00100F4E740F004004E
:100B50003060F7E7FFF786FD0099411A41F28830CF
:100B6000814266D830688007F4D50EE0FFF77AFD41
:100B7000009007E0FFF776FD0099411A41F28830B6
:100B8000814256D830688007F4D42FB1DBF80010CA
:100B900021F08051CBF80010A069C8B33D49091D70
:100BA0000968C1F3810102294AD00228504607D0C2
:100BB000C8F8600000E03CE0FFF754FD04463BE06D
:100BC0004746C8F86000FFF74DFD064605E000BF48
:100BD000FFF748FD801B02282BD828688001F7D436
:100BE000D4E907010843A16A2E4A490802EB0141F2
:100BF000626A41EA8211084394F82C1040EA0161CC
:100C0000C9F8001001203866FFF72CFD044606E005
:100C10003EE000BFFFF726FD001B022809D8286828
:100C20008001F7D534E000BFFFF71CFD001B022850
:100C300002D90320BDE8F88F28688001F4D427E0AA
:100C40000128F7D0D9F80000E26900F48001914250
:100C50001CD1226A00F03F01914217D147F6C071C2
:100C6000626A0140B1EB821F10D1A26A4FF0FF33DC
:100C700000F4403103EB5202B1EB024F06D194F87D
:100C80002C1000F07060B0EB016F01D00120D1E7B3
:100C90000020CFE70438024000004742800E474260
:100CA000007000400000FFFF10B5401EB0F1807FD3
:100CB00001D3012010BD4FF0E02460610F216017C7
:100CC00000F0C4FB0020A06107202061002010BDBF
:100CD0007047704770B590F83C20012A32D001244B
:100CE00080F83C40022280F83D2003685A689D68E5
:100CF00022F070060A6832435A60134B02689A4227
:100D000014D0B2F1804F11D0104B9A420ED0104B3C
:100D10009A420BD00F4B9A4208D00F4B9A4205D003
:100D20000E4B9A4202D00E4B9A4204D1496825F0EC
:100D300080031943916080F83D40002180F83C1009
:100D4000084670BD022070BD000001400004004054
:100D500000080040000C0040000401400040014039
:100D60000018004010B5040003D094F83D0010B105
:100D700007E0012010BD002084F83C00204600F070
:100D80001FF8022084F83D00211D206800F0BCFA05
:100D9000012084F8460084F83E0084F83F0084F87F
:100DA000400084F8410084F8420084F8430084F84D
:100DB000440084F8450084F83D00002010BD000088
:100DC00008B50068B0F1804F15D01449884223D18E
:100DD0001348016841F4803101600068002200F48A
:100DE0008030009011461820FFF7ACFC1820BDE8B9
:100DF0000840FFF799BC0A48001F016841F0010153
:100E000001600068002200F00100009011461C20E3
:100E1000FFF798FC1C20EAE708BD000000400140F5
:100E20004438024090F83D10012901D0012070475C
:100E3000022180F83D100168CA6842F00102CA60D0
:100E400000681149884214D0B0F1804F11D00F4989
:100E500088420ED00E4988420BD00E49884208D0F5
:100E60000D49884205D00D49884202D00C4988427C
:100E700004D1816801F00701062903D0016841F01F
:100E800001010160002070470000014000040040A3
:100E900000080040000C00400004014000400140F8
:100EA0000018004070B5044690F83C000025012869
:100EB00017D0012684F83C60022084F83D002068A9
:100EC000826822F0770222F47F428260086850280C
:100ED00038D00DDC20284FD005DC90B3102811D17C
:100EE0004AE0022070BD302846D040280AD13BE0BD
:100EF00060282FD070280DD0B0F5805F03D0B0F5FA
:100F0000005F12D0012584F83D60002084F83C0089
:100F1000284670BDCB68D1E90121206800F060FA55
:100F20002068816841F0770109E0CB68D1E90121AF
:100F3000206800F055FA2068816841F480418160A2
:100F4000E1E719E0CA684968206800F05BFA5021BF
:100F5000206806E0CA684968206800F064FA6021E9
:100F6000206800F047FACEE7CA684968206800F0B8
:100F700049FA40212068F4E7226801461046F0E76C
:100F800070472DE9F04104460068C66805694FF0D6
:100F90000007A90713D5B10711D5F91E016101207A
:100FA0002077206880698007204602D0FFF7E8FF9D
:100FB00004E000F07EF8204600F07CF82777680710
:100FC00016D5700714D521686FF00400086102205F
:100FD00020772068806910F4407F204602D0FFF718
:100FE000CFFF04E000F065F8204600F063F82777B3
:100FF000280715D5300713D521686FF00800086160
:10100000042020772068C0698007204602D0FFF7BF
:10101000B7FF04E000F04DF8204600F04BF82777CA
:10102000E80616D5F00614D521686FF010000861A7
:10103000082020772068C06910F4407F204602D045
:10104000FFF79EFF04E000F034F8204600F032F88D
:101050002777E80708D0F00706D021686FF0010075
:101060000861204600F028F8280608D5300606D585
:1010700021686FF0800008612046FFF729FE6806AE
:1010800008D5700606D521686FF04000086120463B
:1010900000F02EF8A8060AD5B00608D521686FF032
:1010A000200008612046BDE8F041FFF712BEBDE810
:1010B000F08170477047000010B50B4A01680B487B
:1010C000914207D181140446FFF7BEFA4FF48041E4
:1010D000204604E0B1F1804F05D14FF40041BDE856
:1010E0001040FFF7B1BA10BD00400140000C0240B3
:1010F0007047FEE7F0B587B014216846FFF72BF97B
:101100001E480024016841F080010160016801F07F
:1011100080010591016841F001010160016801F061
:1011200001010591016841F0080101600068144F58
:1011300000F008004FF47046059000223146384612
:10114000FFF78AFA01254FF488100095CDE90104D4
:1011500069460C48FFF780F90096CDE901546946CD
:1011600038460394FFF778F9002211460620FFF76E
:10117000E9FA0620FFF7D8FA07B0F0BD3038024090
:10118000000C02400000024010B586B00024174851
:10119000009401940294039404944FF080410594C8
:1011A000016040F29F21C0E901144CF24F31C0E9C7
:1011B00003148461FFF7D6FD08B1FFF735F94FF44A
:1011C0008050009069460948FFF76CFE08B1FFF7B0
:1011D0002BF9049404A905480594FFF77BFD00282A
:1011E00001D0FFF721F906B010BD0000100000206B
:1011F0001FB5002111480091019102910E4A0391FF
:10120000026040F24F12C0E901214CF24F32C0E9B6
:1012100003218161FFF7A6FD08B1FFF705F94FF43F
:101220008050009069460548FFF73CFE002801D039
:10123000FFF7FAF81FBD00000040014058000020F1
:10124000FEE7FEE770477047FFF712BA30B593B07C
:1012500030216846FFF77FF814210CA8FFF77BF8D0
:101260001D480025016841F080510160006800F0D0
:10127000805011901948016841F480410160006874
:10128000022400F48040119001200090000401909D
:101290008001CDE9064004200890A820CDE909048A
:1012A00007200B906846FFF749FB08B172B6FEE7CE
:1012B0000CA90F2081E831004FF4A0500F904FF49B
:1012C0008050109005210CA8FFF76EFA002801D07D
:1012D00072B6FEE713B030BD4038024000700040E7
:1012E0000248016841F470010160704788ED00E038
:1012F0000148FFF746BE0000580000200148FFF7F4
:1013000040BE000010000020F0B50268294C2A4DB4
:101310002A4E2B4F2B4B4FF0804CA04209D06045FA
:1013200007D0A84205D0B04203D0B84201D09842BD
:1013300004D122F0700E4A6842EA0E02A0421BD08D
:10134000604519D0A84217D0B04215D0B84213D08A
:10135000984211D01C4DA8420ED01C4DA8420BD073
:101360001B4DA84208D01B4DA84205D01A4DA842DB
:1013700002D01A4DA84203D122F44075CA682A430C
:101380004D6922F080022A4302608A68C2620A68BC
:101390008262A04201D0984201D109690163012112
:1013A00041610169C90703D0016921F001010161AF
:1013B000F0BD0000000001400004004000080040B3
:1013C000000C004000040140004001400044014086
:1013D0000048014000180040001C00400020004070
:1013E00010B5846842EA032224F47F440A4322436E
:1013F000826010BD826822F070020A4342F0070149
:101400008160704710B5036A046A24F00104046225
:10141000846924F0F00444EA021423F00A020A4327
:101420008461026210BD10B5036A046A24F01004DE
:101430000462846923F0A00324F4704444EA023275
:1014400043EA01118261016210BDFEE70907090E3E
:10145000002804DB00F1E02080F80014704700F061
:101460000F0000F1E02080F8141D7047FFF708F925
:10147000FFF7ECFEFFF73EFEFFF786FEFFF7B8FE34
:101480000348FFF7CFFC0348FFF7CCFCFEE7000062
:1014900010000020580000204FF04070E1EE100ACC
:1014A000704700000000000000000102030406076E
:1014B00008090000D41400080000002010000000FB
:1014C000C4010008E414000810000020F006000029
:1014D000E001000801000000100000000000000012
:0414E0000024F400F0
:040000050800018965
:00000001FF
