:020000040800F2
:10000000D006002055020008D91400082D1300085E
:10001000D51400084D040008E11600080000000097
:100020000000000000000000000000001916000899
:100030005104000800000000DD1400081D1600082F
:100040006F0200086F0200086F0200086F020008CC
:100050006F0200086F0200086F0200086F020008BC
:100060006F0200086F0200086F0200086F020008AC
:100070006F0200086F0200086F0200086F0200089C
:100080006F0200086F0200086F0200086F0200088C
:100090006F0200086F0200086F0200086F0200087C
:1000A0006F0200086F0200086F0200086F0200086C
:1000B0006F0200086F0200086F0200086F0200085C
:1000C0006F0200086F0200086F020008E1140008C8
:1000D0006F0200086F0200086F0200086F0200083C
:1000E0006F0200086F0200086F0200086F0200082C
:1000F0006F0200086F0200086F0200086F0200081C
:100100006F0200086F0200086F0200086F0200080B
:100110006F0200086F0200086F0200086F020008FB
:100120006F0200086F0200086F0200086F020008EB
:100130006F0200086F0200086F0200086F020008DB
:100140006F0200086F0200086F0200086F020008CB
:100150006F0200086F0200086F0200086F020008BB
:100160006F0200086F0200086F0200086F020008AB
:100170006F0200086F0200086F0200080000000014
:100180006F0200086F02000800F002F800F052F859
:1001900014A696E8000CB244B344DA4501D100F04D
:1001A00049F8BAE80F000FA696E83000A5EB040561
:1001B00004EB0607AAEB0704A7F101074FEA1515A0
:1001C0004FEA3414A4F10104AC4201D300F032F838
:1001D00013F0010F18BFFB1A43F0010300F001F800
:1001E000DBE718477415000094150000103A24BF8F
:1001F00078C878C1FAD8520724BF30C830C144BF8C
:1002000004680C6070470000704700000023002461
:1002100000250026103A28BF78C1FBD8520728BF16
:1002200030C148BF0B6070471FB501F080FA1FBD99
:1002300010B510BD00F0D0F81146FFF7F5FF01F042
:1002400051FA00F0EEF803B4FFF7F2FF03BC00F040
:10025000F5F800000948804709480047FEE7FEE737
:10026000FEE7FEE7FEE7FEE7FEE7FEE7FEE7FEE766
:1002700004480549054A064B70470000CD160008A2
:1002800089010008D0000020D0060020D002002004
:10029000D002002053EA020C00F069802DE9F04BF7
:1002A0004FF00006002B1FBFB3FA83F503FA05F4E5
:1002B00024FA05F65E4012BF1643B2FA82F502FA3E
:1002C00005F4C5F120051EBF22FA05FC44EA0C0422
:1002D000203556EA044C4FEA144418BF641C4FF012
:1002E00000084FF00009904271EB030C39D300294C
:1002F00019BFB1FA81F701FA07F6B0FA80F700FAF0
:1003000007F6C7F120071EBF20FA07FC46EA0C06D5
:100310002037B6FBF4FCA7EB0507103F07F01F0BD7
:10032000CBF120062CFA06F60CFA0BFB44BFB346C1
:100330000026202FA4BF5E464FF0000B5BEA060CA0
:1003400008BF4FF0010B19EB0B0948EB0608ABFB9C
:10035000027C06FB02CC0BFB03CCC01B71EB0C0137
:10036000C1E70B46024641464846BDE8F08B13B54F
:10037000084318BF4FF0FF300146AFF30080BDE8DF
:100380001C4070474FF0000200B513469446964655
:10039000203922BFA0E80C50A0E80C50B1F1200198
:1003A000BFF4F7AF090728BFA0E80C5048BF0CC046
:1003B0005DF804EB890028BF40F8042B08BF7047A4
:1003C00048BF20F8022B11F0804F18BF00F8012B16
:1003D0007047704770477047754600F02BF8AE467F
:1003E00005006946534620F00700854618B020B541
:1003F000FFF73EFFBDE820404FF000064FF000073A
:100400004FF000084FF0000BAC46ACE8C009ACE878
:10041000C009ACE8C009ACE8C00921F007018D466D
:10042000704710B50446AFF300802046BDE8104089
:10043000FFF709BF0048704710000020014918204D
:10044000ABBEFEE72600020070470000FEE700009A
:100450007047000072B600BFFEE7000090F835104C
:10046000022909D1052180F835100068016821F0C2
:100470000101016000207047802141650120704723
:100480002DE9F04F83B000F1200200F13E4741F624
:100490000045009207F1FF77C4F2020508224FEAF7
:1004A000B726A84208BF072200254FF000084FF0EA
:1004B0000009072E38BF4FEAB72201920AE000BFB9
:1004C00009F1010908F10208B9F1100F05F104055D
:1004D00000F0A2800F68012202FA09FE17EA0E0A54
:1004E000EED0D1F804C003220CF003077E1E02FAFE
:1004F00008F4012E6FEA040B12D88468CE6804EA6F
:100500000B0406FA08F634438460446824EA0E06B5
:10051000CCF3001404FA09F42643466004E000BF5B
:10052000032F01D103271EE0C6688C6806EA0B067C
:1005300004FA08F42643022FC66014D16FF00302B8
:10054000009E02EA590756F807C005F01C040F2266
:100550000B69A2402CEA0202A3401A43F251D1F8DF
:1005600004C00CF00307026807FA08F302EA0B0262
:100570001A431CF4403F0260A2D0002243F6440319
:100580000292C4F202031A6843F6004442F4804225
:100590001A601A68C4F2010402F480420292029ABC
:1005A00029F003024FF6084C2244CFF6FF7C52F8A4
:1005B0000C3005F00C070F26BE40B343019E06FA2F
:1005C00007F73B4342F80C30A2684B6842EA0A073F
:1005D00043F60C4CDE0258BF22EA0A07A760C4F2B9
:1005E000010CDCF800209E0242EA0A0758BF22EA0A
:1005F0000A07CCF8007062689E0342EA0A0758BFF7
:1006000022EA0A0767602268DB0342EA0A0758BF4A
:1006100022EA0A07276053E703B0BDE8F08F000025
:10062000426902EA0103914341EA03418161704753
:10063000002A08BF090481617047000040F2C80029
:10064000C2F200000068704740F2000040F2C801AA
:10065000C2F20000C2F2000100780A68104408608B
:100660007047000080B543F60040C4F20200016804
:1006700041F400710160016841F48061016001682A
:1006800041F480710160032000F088F8002000F040
:1006900005F800F027F8002080BD000070B540F29A
:1006A0000006C2F2000640F208013278C2F20001F0
:1006B0004FF47A730968B3FBF2F20446B1FBF2F12E
:1006C000084600F01DFE0F2C4FF0010508D838B980
:1006D0004FF0FF3021460022002500F033F874600F
:1006E000284670BD82B0002043F640010190C4F25C
:1006F00002014A6842F480424A604A6802F4804239
:100700000192019A0090086840F0805008600868E3
:1007100000F0805000900098072002B000F03EB832
:10072000002848BF704700F01F01012202FA01F1C2
:100730001C2202EAD0004EF20012CEF200028150DA
:100740007047000010B54EF60C5CCEF2000CDCF8E1
:100750000030C3F3022E8EF00704042C28BF0424BB
:10076000BEF103034FF0FF3E0EFA04F438BF00233E
:10077000A14399400EFA03F39A43114300F00F028C
:1007800000F160430901043A03F564436244002820
:1007900048BF02F10C03197010BD00004EF60C5159
:1007A000CEF200010A684FF6FF031A4060F30A22F6
:1007B00042F0806040F0FD7008607047002804BF80
:1007C000012070472DE9F04143F60808C4F2020801
:1007D0000446D8F8F8030D4600F00700884207D217
:1007E00088F8F853D8F8F80300F00700A84277D14A
:1007F0002068810717D5410705D5D8F8001041F4C6
:10080000E051C8F80010010705D5D8F8001041F4F0
:100810006041C8F80010D8F80010A26821F0F0017B
:100820001143C8F80010C00740D1D8F8F80300F011
:100830000700A84207D988F8F853D8F8F80300F061
:100840000700A8424CD12068410707D5D8F800100E
:10085000E26821F4E0511143C8F80010000708D500
:10086000D8F80000216920F4604040EAC100C8F8CF
:10087000000000F055F8D8F8001041F24872C1F3BA
:100880000311C0F60002515C40F2080220FA01F1A7
:1008900040F20400C2F200000068C2F200021160DF
:1008A000FFF7FCFE0020BDE8F08100BF6068811EFC
:1008B000022907D258F8081C89015CBF0120BDE855
:1008C000F08111E0012807D158F8081C89035CBFAA
:1008D0000120BDE8F08107E058F8081C890703D41F
:1008E0000120BDE8F08100BFD8F8001021F003011D
:1008F0000843C8F80000FFF7A1FE064641F288371A
:10090000D8F80000616800F00C00B0EB810F8CD0CB
:10091000FFF794FE801BB842F2D90320BDE8F081B6
:1009200010B543F60404C4F20204606800F00C0140
:1009300042F200400829C0F2F40007D0042918BF91
:1009400010BD41F20020C0F27A0010BD216801F014
:100950003F02216823684902C3F3881106D4A1FB32
:1009600000010023FFF796FC07E000BF41F20020E2
:10097000C0F27A004843B0FBF2F021680222C1F3D2
:10098000014102EB4101B0FBF1F010BD002804BFB2
:10099000012070472DE9F04182B00446007843F60B
:1009A0000006C007C4F202060CD0B06800F00C00CC
:1009B000042840F081803068800303D560680028F7
:1009C00000F06881207880071BD5B06810F00C0F0C
:1009D00009D0B06800F00C00082840F087807068EB
:1009E000400200F183803068800703D5E068012869
:1009F00040F050813068216920F0F80040EAC100E1
:100A000030602078000713D4207840072AD4A569E5
:100A1000002D00F03A81B06800F00C00082840F08A
:100A2000A580012D40F00E81012002B0BDE8F081CB
:100A30006069002800F082800020C4F24720012174
:100A4000C0F8801EFFF7FAFD054600BF706F8007F3
:100A5000DAD4FFF7F3FD401B0228F7D9032002B0D8
:100A6000BDE8F081306C5FEAC0080AD40020019034
:100A7000306C40F080503064306C00F08050019059
:100A8000019847F20007C4F200073868C00547D450
:100A9000386840F480703860FFF7D0FD054600BF2D
:100AA0003868C0053CD4FFF7C9FD401B0228F7D9C0
:100AB000032002B0BDE8F081B06800F00C00082807
:100AC00003D1706840023FF576AF61683068B1F5D8
:100AD000803F07D0B1F5A02F40F09A8040F48020ED
:100AE0003060306840F4803030609AE0E068002880
:100AF00040F20000C4F247205CD001210160FFF702
:100B00009DFD0546306880073FF574AFFFF796FD01
:100B1000401B0228F6D9032002B0BDE8F08100BFD7
:100B2000A168306F012905D0052955D140F0040096
:100B30003067306F40F00100306756E00020C4F2AB
:100B400047200021C0F8801EFFF778FD054600BF52
:100B5000706F80077FF558AFFFF770FD401B0228CC
:100B6000F6D9032002B0BDE8F08100BF0027C4F22F
:100B7000472700203866FFF761FD022D05460DD19D
:100B80003068800140F18A80FFF758FD401B022841
:100B90004FF00300F4D902B0BDE8F0813068800165
:100BA00073D5FFF74BFD401B02284FF00300F5D92A
:100BB000F1E700BF00210160FFF740FD054600BFDF
:100BC000306880077FF51DAFFFF738FD401B022816
:100BD0004FF00300F4D9DEE720F001003067306FFA
:100BE000002920F0040030677AD0FFF727FD054682
:100BF00041F28837306F800700F18480FFF71EFDD7
:100C0000401BB842F6D9032002B0BDE8F08100BF16
:100C100020F4803030603068002920F4802030607B
:100C20007AD0FFF70BFD0546306880033FF5CAAE6A
:100C3000FFF704FD401B6428F6D9032002B0BDE88D
:100C4000F08100BF7068E16900F480028A4221D11E
:100C5000216A00F03F028A421CD147F6C071626AE5
:100C60000140B1EB821F15D1A16A4FF6FF73C90392
:100C7000994300F44032A1F580318A420AD1E16AF9
:100C800000F07060B0EB016F04D1002002B0BDE84D
:100C9000F08100BF012002B0BDE8F08104F11C0525
:100CA0002FCD084340EA8210D9034FF6FF729143DB
:100CB000A1F5803140EA0560084370600120386684
:100CC000FFF7BCFC044600BF30688001DDD4FFF7AD
:100CD000B5FC001B02284FF00300F5D95BE700BF0D
:100CE000FFF7ACFC054641F2883700BF306F800744
:100CF00008D5FFF7A3FC401BB8424FF00300F5D91D
:100D000049E700BFB8F1000F3FF581AE306C20F02D
:100D1000805030647BE600BFFFF790FC054600BFC3
:100D2000306880037FF54EAEFFF788FC401B6428D7
:100D30004FF00300F4D92EE770470000B0B582B041
:100D400001684A688B6803F04105012D08D112F053
:100D5000400505D0016C02B0BDE8B040084700BFB7
:100D60009D0707D512F0800504D0416C02B0BDE8A4
:100D7000B040084713F4B07F18BF12F0200501D12E
:100D800002B0B0BD5D0618D590F85150032D09D1C1
:100D900000200190C868019088680190019802B015
:100DA000B0BD00BF456D45F00405456500250195C2
:100DB000CD6801958D680195019D9D0604D4DB05E4
:100DC00011D4436DDBB9DBE7456D45F001054565A1
:100DD000002501958D6801950D6825F040050D6091
:100DE000019DDB05EDD5436D43F00803436500230A
:100DF00001938B680193019B436D002BC0D04B681E
:100E0000920723F0E0034B604FF0010380F851306C
:100E100026D04A6841F2ED4422F003024A60C16CD8
:100E2000C0F6000459B1054608460C65FFF716FBED
:100E30000146284619B1416D41F040014165816C80
:100E400000299DD00C6504460846FFF707FB0028E3
:100E500096D0606D40F04000606502B0B0BD00BF4C
:100E600002B0BDE8B040FFF767BF000070B528B121
:100E7000416A29B100210161142106E0012070BD01
:100E80004168B1F5827F02D01C2100224250002629
:100E9000866290F8511029B980F85060054600F03C
:100EA0003DF82846022180F8511090E82E0002F407
:100EB00082720C6803F4044324F040040C601A446A
:100EC00005F4006305691A4405F0020345691A44F4
:100ED00005F001038569C4691A4405F400731A44D6
:100EE00004F03803046A1A4404F08003846A1A4345
:100EF00004F400531A430A60436A042202EA1542CA
:100F000003F010031A444A60CA6922F40062CA61FD
:100F10000121466580F85110304670BD80B586B01D
:100F200043F200010068C4F20101002288420592E8
:100F3000CDE903220292019202D006B080BD00BF2B
:100F400043F630000092C4F20200436943F4805338
:100F50004361436903F480530093009B009203684C
:100F600043F001030360006800F001000090009866
:100F7000E02001900220CDE9020203200490052028
:100F8000059001F5504001A9FFF77AFA23200021CE
:100F90000022FFF7D7FB2320FFF7C2FB06B080BD7E
:100FA0002DE9F04383B0044690F85000012803D1A6
:100FB000022003B0BDE8F08301201E4615460F460F
:100FC00084F85000FFF73AFB94F85110814601294C
:100FD0000CD1002F4FF0010018BF002D14D10021BB
:100FE00084F8501003B0BDE8F08300BF6068B0F52E
:100FF000827F40F0998004294FF00200EFD1A16870
:101000000029E6D0EBE700BF002EE8D094F85100AD
:10101000002104281CBF052084F851006165A563E8
:10102000E687A6872763E6862068A6862164616432
:101030000168490603D4016841F04001016061681C
:10104000731EE268B1FA81F1B3FA83F3DDF8288008
:1010500049095B09B2F5006F41EA03016CD131B176
:1010600037F8021BC1602763E08E0138E086012556
:1010700018F1010031D101E0FFF7E0FAE08E18B974
:10108000E08F002800F0C0802068816889070CD5B7
:10109000E18E51B1012D08D1216B002531F8022BD1
:1010A000C2602163E18E0139E1868168C907E3D01E
:1010B000E18F0029E0D0C068A16B012521F8020B67
:1010C000A163E08F0138E087D6E700BFFFF7B6FAEB
:1010D000A0EB0900404580F0AD80E08E18B9E08FAC
:1010E000002800F091802068816889070CD5E18E86
:1010F00051B1012D08D1216B002531F8022BC260BE
:101100002163E18E0139E1868168C907DED0E18F74
:101110000029DBD0C068A16B012521F8020BA16377
:10112000E08F0138E087D1E70220002184F85010D9
:1011300003B0BDE8F08300BF39B139780173206B8B
:1011400001302063E08E0138E086012518F10100AE
:1011500032D101E0FFF772FAE08E10B9E08F00287B
:1011600052D02068816889070ED5E18E61B1012DCA
:101170000AD1216B002509780173216B20680131A8
:101180002163E18E0139E1868168C907E2D0E18FF0
:101190000029DFD0C068A16B01250870A06B013069
:1011A000A063E08F0138E087D4E700BFFFF746FA7D
:1011B000A0EB090040453DD2E08E08B9E08F18B39E
:1011C0002068816889070ED5E18E61B1012D0AD1B1
:1011D000216B002509780173216B2068013121639F
:1011E000E18E0139E1868168C907DFD0E18F0029EE
:1011F000DCD0C068A16B01250870A06B0130A06332
:10120000E08F0138E087D1E72046022101224346E2
:10121000CDF8009000F070F9B0B1606D40F02000A2
:101220006065202060650120002184F8501003B023
:10123000BDE8F083012084F851000320002184F8E8
:10124000501003B0BDE8F08340F20800C2F2000085
:10125000006849F68171C1F25E61A0FB0101480D91
:101260004FF47A71484302906068B0F5827F0BD1E9
:101270002046802100224346CDF8009000F03CF942
:101280000028CAD124E000BF029808B302980138B0
:1012900002902068806800061AD50298C0B10298B2
:1012A0000138029020688068000611D5029878B154
:1012B00002980138029020688068000608D50298DC
:1012C00030B1029801380290206880680006DBD4B3
:1012D000A06838B9002001902068C1680191806839
:1012E00001900198606D00284FF0010004BF84F860
:1012F00051000020002184F8501003B0BDE8F083B5
:10130000411E0020B0EB116F1CBF012070474EF250
:101310001002CEF2000251604EF62351CEF20001CF
:10132000F0230B700721906011607047FEE700000A
:101330002DE9F04182B040F20008C4F202080D46E7
:101340000646404610210022FFF772F97E2000EA8F
:10135000460040F27006C2F200068DF80500322405
:101360000DF1050101AA304601230094FFF718FE94
:1013700008F5406738464FF48041FFF751F90DF109
:1013800007010DF10602304601238DF80750009445
:10139000FFF706FE38464FF48041FFF741F940461B
:1013A00010210122FFF744F902B0BDE8F0810000EE
:1013B0002DE9F04786B0002643F630000596CDE9CA
:1013C0000366CDE901660096C4F20200016840F2AE
:1013D000000841F0800101600168C4F2020801F0D8
:1013E00080010091009900960168002241F00101FE
:1013F00001600168102701F0010100910099009639
:10140000016841F002010160016801F002010091F0
:1014100000990096016841F0080101600068102100
:1014200000F00800009000984046FFF701F908F529
:1014300080642046012100224FF00109FFF7F8F8EF
:1014400008F5406528464FF4E04100224FF4E04A99
:10145000FFF7EEF8CDE9017901AF40463946CDE915
:101460000366FFF70DF820463946CDE90199CDE92D
:101470000366FFF705F828463946CDE901A9CDE90D
:101480000366FEF7FDFF06B0BDE8F08780B540F2C9
:10149000700043F20001C2F20000C4F201014FF4F7
:1014A000827200234FF4007C80E80E000A21C0E91C
:1014B0000333C0E9053CC361C0E90833C0E90A3120
:1014C000FFF7D4FC002808BF80BDBDE88040FEF7D0
:1014D000C1BF0000FEE70000FEE70000704700000B
:1014E00040F27000C2F20000FFF728BC806B0021C0
:1014F000C187C186FFF720BC2DE9F04381B0089C6D
:10150000984615460E468146FFF798F8201A00EBDC
:101510000804FFF793F840F20801C2F200010968DD
:10152000C1F3CB3161430091D9F800108A68324091
:10153000921BB2FA82F25209AA423DD0074618F134
:10154000010031D0FFF77AF8C01BA04238D20098D2
:1015500000990028A1F101010091D9F800108968D3
:1015600008BF044601EA0600801BB0FA80F040097B
:10157000A842E7D120E000BF88683040801BB0FA65
:1015800080F04009A84217D088683040801BB0FA2C
:1015900080F04009A8420FD088683040801BB0FA24
:1015A00080F04009A84207D088683040801BB0FA1C
:1015B00080F04009A842DFD1002001B0BDE8F083EF
:1015C000D9E900014268B1F5827F22F0E002426071
:1015D0000BD1D9F80810B1F5004F02D0B1F5806FEA
:1015E00003D1016821F040010160D9F82810B1F55C
:1015F000005F07D1016821F400510160016841F4E6
:1016000000510160012089F85100002089F8500044
:10161000032001B0BDE8F08370470000FFF714B865
:1016200070B592B006AC20463021FEF7ABFE002527
:1016300043F640000595CDE90355CDE901550095E8
:10164000C4F202000168022641F080510160006886
:1016500000F080500090009847F200000095C4F21E
:101660000000016841F480410160006800F480409E
:1016700000900098012006904FF4803007904FF4BE
:1016800080000D9008200E904FF4A870CDE90F0651
:101690000720119020460C96FFF778F910B172B62A
:1016A000FEE700BF0F20CDE901064FF4A0500490E3
:1016B0004FF48050059001A805210395FFF77EF8AF
:1016C00010B172B6FEE700BF12B070BD4EF6885082
:1016D000CEF20000016841F4700101607047000023
:1016E000FEE70000FEF7BEFFFFF79AFFFFF760FE80
:1016F000FFF7CCFE01200F21FFF71AFE2A208D21D3
:10170000FFF716FE2B203E21FFF712FE2D201E2193
:10171000FFF70EFE2C200021FFF70AFE15204021C6
:10172000FFF706FE11203D21FFF702FEFEE7F1EE76
:10173000100A4FF6FF71C0F2C03120EA010040F0FC
:101740004070E1EE100A7047000000000000000049
:1017500001020304060708097817000800000020AA
:1017600010000000EC01000888170008100000209D
:10177000C00600000C02000801000000100000007C
:081780000024F4000000000049
:040000050800018965
:00000001FF
