:020000040800F2
:10000000D0060020550200087D1800081D160008C3
:10001000791800084D0400086D1A0008000000005F
:10002000000000000000000000000000A51900080A
:10003000510400080000000081180008A9190008F8
:100040006F0200086F0200086F0200086F020008CC
:100050006F0200086F0200086F0200086F020008BC
:100060006F0200086F0200086F0200086F020008AC
:100070006F0200086F0200086F0200086F0200089C
:100080006F0200086F0200086F0200086F0200088C
:100090006F0200086F0200086F0200086F0200087C
:1000A0006F0200086F0200086F0200086F0200086C
:1000B0006F0200086F0200086F0200086F0200085C
:1000C0006F0200086F0200086F0200086F0200084C
:1000D0006F0200086F0200086F0200086F0200083C
:1000E0006F0200086F0200086F0200086F0200082C
:1000F0006F0200086F0200086F0200086F0200081C
:100100006F0200086F0200086F0200086F0200080B
:100110006F0200086F0200086F0200086F020008FB
:100120006F0200086F0200086F0200086F020008EB
:100130006F0200086F0200086F0200086F020008DB
:100140006F0200086F0200086F0200086F020008CB
:100150006F0200086F0200086F0200086F020008BB
:100160006F0200086F0200086F0200086F020008AB
:100170006F0200086F0200086F0200080000000014
:100180006F0200086F02000800F002F800F052F859
:1001900014A696E8000CB244B344DA4501D100F04D
:1001A00049F8BAE80F000FA696E83000A5EB040561
:1001B00004EB0607AAEB0704A7F101074FEA1515A0
:1001C0004FEA3414A4F10104AC4201D300F032F838
:1001D00013F0010F18BFFB1A43F0010300F001F800
:1001E000DBE718470819000028190000103A24BF5F
:1001F00078C878C1FAD8520724BF30C830C144BF8C
:1002000004680C6070470000704700000023002461
:1002100000250026103A28BF78C1FBD8520728BF16
:1002200030C148BF0B6070471FB501F04AFC1FBDCD
:1002300010B510BD00F0D0F81146FFF7F5FF01F042
:1002400017FC00F0EEF803B4FFF7F2FF03BC00F078
:10025000F5F800000948804709480047FEE7FEE737
:10026000FEE7FEE7FEE7FEE7FEE7FEE7FEE7FEE766
:1002700004480549054A064B70470000591A000812
:1002800089010008D0000020D0060020D002002004
:10029000D002002053EA020C00F069802DE9F04BF7
:1002A0004FF00006002B1FBFB3FA83F503FA05F4E5
:1002B00024FA05F65E4012BF1643B2FA82F502FA3E
:1002C00005F4C5F120051EBF22FA05FC44EA0C0422
:1002D000203556EA044C4FEA144418BF641C4FF012
:1002E00000084FF00009904271EB030C39D300294C
:1002F00019BFB1FA81F701FA07F6B0FA80F700FAF0
:1003000007F6C7F120071EBF20FA07FC46EA0C06D5
:100310002037B6FBF4FCA7EB0507103F07F01F0BD7
:10032000CBF120062CFA06F60CFA0BFB44BFB346C1
:100330000026202FA4BF5E464FF0000B5BEA060CA0
:1003400008BF4FF0010B19EB0B0948EB0608ABFB9C
:10035000027C06FB02CC0BFB03CCC01B71EB0C0137
:10036000C1E70B46024641464846BDE8F08B13B54F
:10037000084318BF4FF0FF300146AFF30080BDE8DF
:100380001C4070474FF0000200B513469446964655
:10039000203922BFA0E80C50A0E80C50B1F1200198
:1003A000BFF4F7AF090728BFA0E80C5048BF0CC046
:1003B0005DF804EB890028BF40F8042B08BF7047A4
:1003C00048BF20F8022B11F0804F18BF00F8012B16
:1003D0007047704770477047754600F02BF8AE467F
:1003E00005006946534620F00700854618B020B541
:1003F000FFF73EFFBDE820404FF000064FF000073A
:100400004FF000084FF0000BAC46ACE8C009ACE878
:10041000C009ACE8C009ACE8C00921F007018D466D
:10042000704710B50446AFF300802046BDE8104089
:10043000FFF709BF0048704710000020014918204D
:10044000ABBEFEE72600020070470000FEE700009A
:100450007047000072B600BFFEE700002DE9F04FC4
:1004600083B000F1200200F13E4741F600450092C2
:1004700007F1FF77C4F2020508224FEAB726A84227
:1004800008BF072200254FF000084FF00009072E93
:1004900038BF4FEAB72201920AE000BF09F1010913
:1004A00008F10208B9F1100F05F1040500F0A2806F
:1004B0000F68012202FA09FE17EA0E0AEED0D1F8FF
:1004C00004C003220CF003077E1E02FA08F4012E7A
:1004D0006FEA040B12D88468CE6804EA0B0406FAAB
:1004E00008F634438460446824EA0E06CCF3001412
:1004F00004FA09F42643466004E000BF032F01D14B
:1005000003271EE0C6688C6806EA0B0604FA08F4A6
:100510002643022FC66014D16FF00302009E02EA48
:10052000590756F807C005F01C040F220B69A240BA
:100530002CEA0202A3401A43F251D1F804C00CF095
:100540000307026807FA08F302EA0B021A431CF4D5
:10055000403F0260A2D0002243F644030292C4F25C
:1005600002031A6843F6004442F480421A601A6893
:10057000C4F2010402F480420292029A29F00302BA
:100580004FF6084C2244CFF6FF7C52F80C3005F0B1
:100590000C070F26BE40B343019E06FA07F73B4304
:1005A00042F80C30A2684B6842EA0A0743F60C4C4A
:1005B000DE0258BF22EA0A07A760C4F2010CDCF889
:1005C00000209E0242EA0A0758BF22EA0A07CCF836
:1005D000007062689E0342EA0A0758BF22EA0A07CF
:1005E00067602268DB0342EA0A0758BF22EA0A076B
:1005F000276053E703B0BDE8F08F0000002A08BF72
:10060000090481617047000040F2C800C2F2000096
:100610000068704740F2000040F2C801C2F20000DA
:10062000C2F2000100780A681044086070470000B8
:1006300080B543F60040C4F20200016841F4007145
:100640000160016841F480610160016841F48071DA
:100650000160032000F076F8002000F005F800F0BB
:1006600027F8002080BD000070B540F20006C2F2FD
:10067000000640F208013278C2F200014FF47A73AA
:100680000968B3FBF2F20446B1FBF2F1084600F050
:10069000AFFF0F2C4FF0010508D838B94FF0FF30ED
:1006A00021460022002500F021F87460284670BD24
:1006B00082B0002043F640010190C4F202014A6872
:1006C00042F480424A604A6802F480420192019AF0
:1006D0000090086840F080500860086800F0805082
:1006E00000900098072002B000F02CB810B54EF62C
:1006F0000C5CCEF2000CDCF80030C3F3022E8EF05E
:100700000704042C28BF0424BEF103034FF0FF3E6E
:100710000EFA04F438BF0023A14399400EFA03F304
:100720009A43114300F00F0200F160430901043ABB
:1007300003F564436244002848BF02F10C031970BA
:1007400010BD00004EF60C51CEF200010A684FF6C3
:10075000FF031A4060F30A2242F0806040F0FD700F
:1007600008607047002804BF012070472DE9F04160
:1007700043F60808C4F202080446D8F8F8030D4608
:1007800000F00700884207D288F8F853D8F8F80339
:1007900000F00700A84277D12068810717D54107EC
:1007A00005D5D8F8001041F4E051C8F80010010751
:1007B00005D5D8F8001041F46041C8F80010D8F809
:1007C0000010A26821F0F0011143C8F80010C00722
:1007D00040D1D8F8F80300F00700A84207D988F8FC
:1007E000F853D8F8F80300F00700A8424CD120686D
:1007F000410707D5D8F80010E26821F4E051114311
:10080000C8F80010000708D5D8F80000216920F4C6
:10081000604040EAC100C8F8000000F055F8D8F880
:10082000001041F6DC22C1F30311C0F60002515C56
:1008300040F2080220FA01F140F20400C2F2000086
:100840000068C2F200021160FFF70EFF0020BDE851
:10085000F08100BF6068811E022907D258F8081C89
:1008600089015CBF0120BDE8F08111E0012807D1BA
:1008700058F8081C89035CBF0120BDE8F08107E03F
:1008800058F8081C890703D40120BDE8F08100BF97
:10089000D8F8001021F003010843C8F80000FFF762
:1008A000B3FE064641F28837D8F80000616800F0D0
:1008B0000C00B0EB810F8CD0FFF7A6FE801BB84276
:1008C000F2D90320BDE8F08110B543F60404C4F268
:1008D0000204606800F00C0142F200400829C0F2F6
:1008E000F40007D0042918BF10BD41F20020C0F267
:1008F0007A0010BD216801F03F0221682368490297
:10090000C3F3881106D4A1FB00010023FFF7C2FC4A
:1009100007E000BF41F20020C0F27A004843B0FB7C
:10092000F2F021680222C1F3014102EB4101B0FB68
:10093000F1F010BD002804BF012070472DE9F041FF
:1009400082B00446007843F60006C007C4F20206EF
:100950000CD0B06800F00C00042840F081803068B2
:10096000800303D56068002800F068812078800744
:100970001BD5B06810F00C0F09D0B06800F00C0067
:10098000082840F087807068400200F1838030685A
:10099000800703D5E068012840F050813068216964
:1009A00020F0F80040EAC10030602078000713D43E
:1009B000207840072AD4A569002D00F03A81B0685C
:1009C00000F00C00082840F0A580012D40F00E81B9
:1009D000012002B0BDE8F0816069002800F082804B
:1009E0000020C4F247200121C0F8801EFFF70CFE52
:1009F000054600BF706F8007DAD4FFF705FE401B85
:100A00000228F7D9032002B0BDE8F081306C5FEA1C
:100A1000C0080AD400200190306C40F0805030644F
:100A2000306C00F080500190019847F20007C4F24A
:100A300000073868C00547D4386840F480703860D3
:100A4000FFF7E2FD054600BF3868C0053CD4FFF75C
:100A5000DBFD401B0228F7D9032002B0BDE8F0817E
:100A6000B06800F00C00082803D1706840023FF520
:100A700076AF61683068B1F5803F07D0B1F5A02F3F
:100A800040F09A8040F480203060306840F480303C
:100A900030609AE0E068002840F20000C4F247208D
:100AA0005CD001210160FFF7AFFD0546306880078B
:100AB0003FF574AFFFF7A8FD401B0228F6D90320CD
:100AC00002B0BDE8F08100BFA168306F012905D0F8
:100AD000052955D140F004003067306F40F0010027
:100AE000306756E00020C4F247200021C0F8801E85
:100AF000FFF78AFD054600BF706F80077FF558AF8E
:100B0000FFF782FD401B0228F6D9032002B0BDE8A2
:100B1000F08100BF0027C4F2472700203866FFF7A6
:100B200073FD022D05460DD13068800140F18A80A9
:100B3000FFF76AFD401B02284FF00300F4D902B012
:100B4000BDE8F0813068800173D5FFF75DFD401B83
:100B500002284FF00300F5D9F1E700BF0021016042
:100B6000FFF752FD054600BF306880077FF51DAFD7
:100B7000FFF74AFD401B02284FF00300F4D9DEE7DF
:100B800020F001003067306F002920F0040030674A
:100B90007AD0FFF739FD054641F28837306F80077C
:100BA00000F18480FFF730FD401BB842F6D90320E6
:100BB00002B0BDE8F08100BF20F4803030603068C2
:100BC000002920F4802030607AD0FFF71DFD054613
:100BD000306880033FF5CAAEFFF716FD401B64285E
:100BE000F6D9032002B0BDE8F08100BF7068E1696A
:100BF00000F480028A4221D1216A00F03F028A4239
:100C00001CD147F6C071626A0140B1EB821F15D159
:100C1000A16A4FF6FF73C903994300F44032A1F56E
:100C200080318A420AD1E16A00F07060B0EB016F56
:100C300004D1002002B0BDE8F08100BF012002B065
:100C4000BDE8F08104F11C052FCD084340EA821075
:100C5000D9034FF6FF729143A1F5803140EA056058
:100C60000843706001203866FFF7CEFC044600BFE1
:100C700030688001DDD4FFF7C7FC001B02284FF06D
:100C80000300F5D95BE700BFFFF7BEFC054641F264
:100C9000883700BF306F800708D5FFF7B5FC401BD1
:100CA000B8424FF00300F5D949E700BFB8F1000F93
:100CB0003FF581AE306C20F0805030647BE600BFA1
:100CC000FFF7A2FC054600BF306880037FF54EAEFB
:100CD000FFF79AFC401B64284FF00300F4D92EE77D
:100CE00070B528B1416A29B100210161142106E0E3
:100CF000012070BD4168B1F5827F02D01C21002225
:100D000042500026866290F8511029B980F8506050
:100D1000054600F03DF82846022180F8511090E881
:100D20002E0002F482720C6803F4044324F04004A1
:100D30000C601A4405F4006305691A4405F00203C7
:100D400045691A4405F001038569C4691A4405F42C
:100D500000731A4404F03803046A1A4404F0800350
:100D6000846A1A4304F400531A430A60436A042253
:100D700002EA154203F010031A444A60CA6922F4D9
:100D80000062CA610121466580F85110304670BD8D
:100D900080B586B043F200010068C4F20101002270
:100DA00088420592CDE903220292019202D006B058
:100DB00080BD00BF43F630000092C4F202004369D8
:100DC00043F480534361436903F480530093009BD1
:100DD0000092036843F001030360006800F0010023
:100DE00000900098E02001900220CDE9020203204B
:100DF00004900520059001F5504001A9FFF72EFB56
:100E000006B080BDF0B581B0044690F851000128CD
:100E100010D160681D46B0F5827F03D1A06800281C
:100E200000F0C08094F85000012809D1022001B0E0
:100E3000F0BD00BF0220002184F8501001B0F0BDC9
:100E40000120174684F850000E46FFF7DDFB002E08
:100E500000F0C48031460646002F4FF00100EAD072
:100E60000420002384F851006365A163A787E78706
:100E70002363A386E386A1682068B1F5004F3A4654
:100E8000236463643ED1016821F040010160016880
:100E900021F4804101600168490636D5E168E08FA0
:100EA000D9B3002868D0681C0BD11AE0C068A16BC8
:100EB00021F8020BA163E08F0138E087E08F002862
:100EC0005AD020688168C907F0D1FFF79DFB801BCD
:100ED000A842F3D33AE000BFFFF796FBE08F00286B
:100EE0004AD020688168C907F6D0C068A16B21F894
:100EF000020BA163E08F0138E087E08F0028F0D17A
:100F00003AE000BF01684906C8D4016841F04001D9
:100F10000160E168E08F0029C3D168B3681C0CD17F
:100F20001AE000BF007BA16B0870A06B0130A063CA
:100F3000E08F0138E087E08FF0B120688168C90751
:100F4000F0D1FFF761FB801BA842F4D303204CE0F3
:100F5000FFF75AFBE08F78B120688168C907F7D0A6
:100F6000007BA16B0870A06B0130A063E08F01389B
:100F7000E087E08F0028EFD16068B0F5827F0ED166
:100F8000A068B0F5004F02D0B0F5806F16D121688F
:100F9000B0F5806F0A6822F040020A600ED1204648
:100FA00001210DE0042084F85100204613460A4632
:100FB000009500F06DF901B0F0BD00BF2046802122
:100FC00000222B46009600F05DFC28B1606D40F0D9
:100FD0002000606520206065606D28B1012000213F
:100FE00084F8501001B0F0BD0020012184F85110A8
:100FF000002184F8501001B0F0BD00002DE9F0414F
:1010000084B0044690F85000012803D1022004B0B7
:10101000BDE8F08101201D460F46164684F85000B9
:10102000FFF7F2FA94F8511001290DD18046002FF4
:101030004FF0010018BF002E0ED1002184F850108F
:1010400004B0BDE8F08100BF0220002184F85010F8
:1010500004B0BDE8F08100BF0320002284F85100F5
:1010600062652763A686E686A263A287E287A068F8
:101070003146B0F5004F20682264626407D10268EF
:1010800022F040020260026842F48042026002687C
:10109000520603D4026842F04002026062680139DD
:1010A000E368B2FA82F2B1FA81F152094909B3F563
:1010B000006F41EA020139D131B137F8021BC1603A
:1010C0002763E08E0138E086E08E002868D0681C37
:1010D0000BD11AE0216B31F8022BC2602163E08E44
:1010E0000138E086E08E00285AD0206881688907A0
:1010F000F0D4FFF789FAA0EB0800A842F2D338E059
:10110000FFF782FAE08E00284AD0206881688907BC
:10111000F6D5216B31F8022BC2602163E08E0138D5
:10112000E086E08E0028F0D13AE000BF39B139788E
:101130000173206B01302063E08E0138E086E08E81
:1011400070B3681C0BD11BE0216B09780173206B15
:1011500001302063E08E0138E086E08E00B3206825
:1011600081688907F0D4FFF74FFAA0EB0800A84286
:10117000F3D3032083E000BFFFF746FAE08E78B197
:10118000206881688907F7D5216B09780173206B86
:1011900001302063E08E0138E086E08E0028EFD138
:1011A0002046022101222B46CDF8008000F06AFB88
:1011B000D0B1606D40F02000606520206065A068BF
:1011C00038B9002002902068C168029180680290BE
:1011D0000298606D002851D00120002184F8501041
:1011E00004B0BDE8F08100BF40F20800C2F2000088
:1011F000006849F68171C1F25E61A0FB0101480DF2
:101200004FF47A71484303906068B0F5827F0BD148
:101210002046802100222B46CDF8008000F032FBD2
:101220000028C6D1CBE700BF03980028C7D0039899
:1012300001380390206880680006C0D50398002814
:10124000BDD0039801380390206880680006B6D5A9
:1012500003980028B3D00398013803902068806871
:101260000006ACD503980028A9D003980138039054
:10127000206880680006D7D4A1E700BF00200121C4
:1012800084F85110002184F8501004B0BDE8F081BA
:101290002DE9F04383B0044690F85000012803D1B3
:1012A000022003B0BDE8F08301201E4615460F461C
:1012B00084F85000FFF7A8F994F8511081460129ED
:1012C0000CD1002F4FF0010018BF002D14D10021C8
:1012D00084F8501003B0BDE8F08300BF6068B0F53B
:1012E000827F40F0998004294FF00200EFD1A1687D
:1012F0000029E6D0EBE700BF002EE8D094F85100BB
:10130000002104281CBF052084F851006165A563F5
:10131000E687A6872763E6862068A686216461643F
:101320000168490603D4016841F040010160616829
:10133000731EE268B1FA81F1B3FA83F3DDF8288015
:1013400049095B09B2F5006F41EA03016CD131B183
:1013500037F8021BC1602763E08E0138E086012563
:1013600018F1010031D101E0FFF74EF9E08E18B914
:10137000E08F002800F0C0802068816889070CD5C4
:10138000E18E51B1012D08D1216B002531F8022BDE
:10139000C2602163E18E0139E1868168C907E3D02B
:1013A000E18F0029E0D0C068A16B012521F8020B74
:1013B000A163E08F0138E087D6E700BFFFF724F98B
:1013C000A0EB0900404580F0AD80E08E18B9E08FB9
:1013D000002800F091802068816889070CD5E18E93
:1013E00051B1012D08D1216B002531F8022BC260CB
:1013F0002163E18E0139E1868168C907DED0E18F82
:101400000029DBD0C068A16B012521F8020BA16384
:10141000E08F0138E087D1E70220002184F85010E6
:1014200003B0BDE8F08300BF39B139780173206B98
:1014300001302063E08E0138E086012518F10100BB
:1014400032D101E0FFF7E0F8E08E10B9E08F00281C
:1014500052D02068816889070ED5E18E61B1012DD7
:101460000AD1216B002509780173216B20680131B5
:101470002163E18E0139E1868168C907E2D0E18FFD
:101480000029DFD0C068A16B01250870A06B013076
:10149000A063E08F0138E087D4E700BFFFF7B4F81E
:1014A000A0EB090040453DD2E08E08B9E08F18B3AB
:1014B0002068816889070ED5E18E61B1012D0AD1BE
:1014C000216B002509780173216B206801312163AC
:1014D000E18E0139E1868168C907DFD0E18F0029FB
:1014E000DCD0C068A16B01250870A06B0130A0633F
:1014F000E08F0138E087D1E72046022101224346F0
:10150000CDF8009000F0BEF9B0B1606D40F0200061
:101510006065202060650120002184F8501003B030
:10152000BDE8F083012084F851000320002184F8F5
:10153000501003B0BDE8F08340F20800C2F2000092
:10154000006849F68171C1F25E61A0FB0101480D9E
:101550004FF47A71484302906068B0F5827F0BD1F6
:101560002046802100224346CDF8009000F08AF901
:101570000028CAD124E000BF029808B302980138BD
:1015800002902068806800061AD50298C0B10298BF
:101590000138029020688068000611D5029878B161
:1015A00002980138029020688068000608D50298E9
:1015B00030B1029801380290206880680006DBD4C0
:1015C000A06838B9002001902068C1680191806846
:1015D00001900198606D00284FF0010004BF84F86D
:1015E00051000020002184F8501003B0BDE8F083C2
:1015F000411E0020B0EB116F1CBF012070474EF25E
:101600001002CEF2000251604EF62351CEF20001DC
:10161000F0230B700721906011607047FEE7000017
:1016200070B582B00024C4F2020494208DF8040046
:10163000204610210022FEF7E1FF40F27005C2F2C1
:10164000000501AE2846314601224FF0FF33FFF777
:10165000D5FC711C284601224FF0FF33FFF7D2FB67
:10166000204610210122FEF7C9FF9DF8050000F079
:10167000030103291BD040F0030014218DF806104C
:101680008DF80700204610210022FEF7B7FF40F238
:101690007000C2F200000DF1060102224FF0FF338C
:1016A000FFF7ACFC204610210122FEF7A7FF02B095
:1016B00070BD000070B582B00024B620C4F20204F0
:1016C0008DF80600204610210022FEF797FF40F219
:1016D0007005C2F200050DF10606284631460122CA
:1016E0004FF0FF33FFF78AFC711C284601224FF0B0
:1016F000FF33FFF787FB204610210122FEF77EFF14
:101700009DF80700903818BF0120400002B070BD5E
:1017100010B582B0002400F07E00C4F202048DF8FF
:1017200006008DF80710204610210022FEF766FF04
:1017300040F27000C2F200000DF1060102224FF0EB
:10174000FF33FFF75BFC204610210122FEF756FF16
:1017500002B010BD2DE9F04786B0002643F63000F8
:101760000596CDE90366CDE901660096C4F2020054
:10177000016840F2000841F0800101600168C4F294
:10178000020801F080010091009900960168002292
:1017900041F0010101600168102701F00101009191
:1017A00000990096016841F002010160016801F0B2
:1017B0000201009100990096016841F00801016062
:1017C0000068102100F00800009000984046FEF7E5
:1017D00015FF08F580642046012100224FF0010921
:1017E000FEF70CFF08F5406528464FF440510022F3
:1017F0004FF4405AFEF702FFCDE9017901AF4046B0
:101800003946CDE90366FEF729FE20463946CDE983
:101810000199CDE90366FEF721FE28463946CDE958
:1018200001A9CDE90366FEF719FE06B0BDE8F08711
:1018300080B540F2700043F20001C2F20000C4F231
:1018400001014FF4827200234FF4007C80E80E0007
:101850000A21C0E90333C0E9053CC361C0E908338C
:10186000C0E90A31FFF73CFA002808BF80BDBDE897
:101870008040FEF7EFBD0000FEE70000FEE700003D
:10188000704700002DE9F04381B0089C984615464A
:101890000E468146FEF7B8FE201A00EB0804FEF75C
:1018A000B3FE40F20801C2F200010968C1F3CB3176
:1018B00061430091D9F800108A683240921BB2FA55
:1018C00082F25209AA423DD0074618F1010031D0F8
:1018D000FEF79AFEC01BA04238D20098009900285B
:1018E000A1F101010091D9F80010896808BF0446F0
:1018F00001EA0600801BB0FA80F04009A842E7D157
:1019000020E000BF88683040801BB0FA80F04009BA
:10191000A84217D088683040801BB0FA80F0400998
:10192000A8420FD088683040801BB0FA80F0400990
:10193000A84207D088683040801BB0FA80F0400988
:10194000A842DFD1002001B0BDE8F083D9E9000151
:101950004268B1F5827F22F0E00242600BD1D9F8F3
:101960000810B1F5004F02D0B1F5806F03D10168C6
:1019700021F040010160D9F82810B1F5005F07D1CE
:10198000016821F400510160016841F400510160D7
:10199000012089F85100002089F85000032001B08F
:1019A000BDE8F08370470000FEF734BE70B592B01A
:1019B00006AC20463021FEF7E5FC002543F640004A
:1019C0000595CDE90355CDE901550095C4F2020016
:1019D0000168022641F080510160006800F08050EB
:1019E0000090009847F200000095C4F200000168E2
:1019F00041F480410160006800F48040009000984C
:101A0000012006904FF4803007904FF480000D9035
:101A100008200E904FF4A870CDE90F060720119012
:101A200020460C96FEF786FF10B172B6FEE700BFA7
:101A30000F20CDE901064FF4A05004904FF48050E0
:101A4000059001A805210395FEF78CFE10B172B632
:101A5000FEE700BF12B070BD4EF68850CEF2000017
:101A6000016841F47001016070470000FEE700006A
:101A7000FEF7DEFDFFF79AFFFFF76CFEFFF7D8FEDB
:101A800001200F21FFF744FE2A208D21FFF740FEA1
:101A90002B203E21FFF73CFE2C201E21FFF738FEB5
:101AA0002D200021FFF734FE15204021FFF730FEE6
:101AB00011203D21FFF72CFEFFF7B2FDFFF7FAFDE5
:101AC000FEE7F1EE100A4FF6FF71C0F2C03120EAD6
:101AD000010040F04070E1EE100A70470000000085
:101AE000000000000102030406070809101B00089B
:101AF0000000002010000000EC010008201B00087E
:101B000010000020C00600000C02000800000000C9
:101B100001000000100000000024F400000000009C
:040000050800018965
:00000001FF
